:020000041000EA
:1000000000B5324B212058609868022188439860DF
:10001000D860186158612E4B002199600221596106
:100020000121F02299502B49196001219960352056
:1000300000F044F80222904214D00621196600F024
:1000400034F8196E01211966002018661A6600F04E
:100050002CF8196E196E196E052000F02FF8012189
:100060000842F9D1002199601B49196000215960AB
:100070001A491B48016001219960EB211966A021F2
:10008000196600F012F800219960164914480160C1
:100090000121996001BC002800D000471248134993
:1000A000086003C880F30888084703B5996A0420EC
:1000B0000142FBD001200142F8D103BD02B5186610
:1000C0001866FFF7F2FF186E186E02BD00000240BE
:1000D000000000180000070000035F00212200005C
:1000E000F4000018222000A00001001008ED00E03C
:1000F00000000000000000000000000074B24E7A12
:1001000000200420F7010010C3010010C5010010F9
:10011000C1010010C1010010C1010010C101001097
:10012000C1010010C1010010C1010010C701001081
:10013000C1010010C1010010C9010010CB01001065
:10014000CD010010CD010010CD010010CD01001037
:10015000CD010010CD010010CD010010CD01001027
:10016000CD010010CD010010CD010010CD01001017
:10017000CD010010CD010010CD010010CD01001007
:10018000CD010010CD010010CD010010CD010010F7
:10019000CD010010CD010010CD010010CD010010E7
:1001A000CD010010CD010010CD010010CD010010D7
:1001B000CD010010CD010010CD010010CD010010C7
:1001C00000BE00BE00BE00BE00BE00BE00F04BF888
:1001D000103800BEF2EB88712474001054740010C3
:1001E0003402001090A31AE700202149086006C8D5
:1001F00081F3088810471F48006800282FD10DA4FC
:100200000ECC002902D000F012F8F9E71A491B4A77
:10021000002000E001C19142FCD1194988471949E9
:1002200088471949884700BEFDE701C901C29A42C3
:10023000FBD3704754740010C0000020980A0020BF
:100240002C7E001000000420000004202C7E0010F2
:1002500000100420001004200000000070470B482C
:1002600000F060FF0047EFF30580C0B27047000068
:1002700008ED00E0000000D0980A00209819002046
:100280000D280010B9060010FD2800105756000078
:1002900006005250ABB360539072001006005250EB
:1002A000861C0302A0720010060052505422A29D28
:1002B000AC72001005005250DE65F4682C7E001010
:1002C000F8B5C04610B5064C2378002B07D1054B76
:1002D000002B02D0044800E000BF0123237010BDB2
:1002E000980D002000000000A06C0010044B10B519
:1002F000002B03D00349044800E000BF10BDC046F6
:10030000000000009C0D0020A06C0010464BF0B5D2
:100310004E46DE46574645469846444BE0B59A461B
:10032000434B444C9B46444B444E9946A5B0200059
:1003300000F0B4FA051EFAD10A21200000F0E4FA18
:10034000431CF4D0200000F0B1FA80225200904209
:1003500059D00021300004F0ABFC3123424600218B
:10036000137005A83C22049504F0A2FC3C22002155
:1003700015A8149504F09CFC20000295039500F04C
:100380008BFA0100504604F0A9FE2C2104AA20009B
:1003900000F0C6FA2C2114AA200000F0C1FA0A21AC
:1003A00002AA200000F0BCFA02A806F0DBFA051E43
:1003B0002DD002AB1B7A002B29D0482202AB9B1810
:1003C0001B78002B23D01E4F030014AA04A9584603
:1003D00004F084FEBB6A2A0014A904A8019300F06B
:1003E00001FC0199BB6A02005B1A3000154903F059
:1003F00063FD3100484604F071FE3223424613701B
:1004000000F05AFD93E7200000F0C4FA8FE70E4891
:1004100004F0BCFD30234246137025B0F0BCBB464F
:10042000B246A946A046F0BD71050020A06C0010A0
:10043000F46C001064170020486D0010B40E00200A
:1004400000400540406D0010B86C001010B5044825
:1004500000F046FA0100034800F060FD10BDC04600
:1004600068180020C01000200121012010B502F002
:1004700007F9FEE7F0B585260C25834C7600FF359D
:10048000A25D635D83B09A4211D09A4214D90C22C6
:10049000591CFF32A154E3189D7A7C48290004F0CE
:1004A0001DFE102D0CD87A4BAD005B599F4602F013
:1004B0003FFAA25D635DE8E7FF21744804F00EFE99
:1004C00085235B00E25C0C23FF330021E35C04E046
:1004D0009A420BD901210133DBB29A42F8D10029AB
:1004E00002D00C23FF33E25403B0F0BDFEE78523B6
:1004F0005B00E25C0C23FF330021E35C04E09A42E2
:1005000018D901210133DBB29A42F8D1002902D077
:100510000C23FF33E2545F4C200000F03BFA5E4BAB
:100520002000197800F0C6F95C4B2000197800F023
:10053000C1F9D9E7FEE70C258526FF357600635D16
:10054000A25D9A4200D89AE05A1C6255E3189F7A3D
:100550005348390004F0C2FD302F61D085260C25A8
:100560007600FF35A25D635D9A42BDD04D4F0AE033
:100570005A1C6255E318997A380000F09BF9A25D85
:10058000635D9A42B0D09342F2D3FF21F4E7852312
:100590005B00E15C0C23FF33E35C1A008B4256D016
:1005A0000025994263D90133A218DBB2907A012564
:1005B0001A008B42F5D10C22FF32A354002846D0FA
:1005C000012800D090E7802237493248520000F0DD
:1005D000D1F93022314B1A7000F074FC84E7852782
:1005E0000C257F00FF35E25D635D304E93420CD0F9
:1005F00093423AD25A1C6255E318997A300000F0BF
:1006000059F9E25D635D9A42F2D16A460A213000EF
:1006100000F086F9684606F0A5F900F0FFF963E7F7
:10062000A25D635D934200D15EE7214F0BE05A1C4F
:100630006255E318997A380000F03CF9A25D635DD9
:100640009A4200D150E79342F1D3FF21F3E7802291
:1006500018491048520000F08DF930220E4B1A70E4
:1006600000F010FC40E7FFF7FFFEFF21C6E79942CC
:1006700000D0FEE7002D00D136E7FF209BE7FF21E9
:10068000074804F02BFD69E7C01000206C6D0010D6
:100690008C6D001068180020700500207105002086
:1006A0007C6D001064170020B40E0020BC140020E4
:1006B00060160020B40D0020F0B5DE464E464546DB
:1006C0005746E0B5A5B004F015FD00F069FB6420C5
:1006D00001F068FA544D5549280000F03FFC544998
:1006E000280000F03DFC00F0A3FB0400010051488D
:1006F00004F0F4FC2100280000F0EAFB4E4804F06E
:10070000ADFD642001F04EFA00F0BCFB00F0DAFB16
:100710004A4B4B4C98464B4B4B4F994631239B468B
:100720004A4E200000F0BAF80028FAD10A21200031
:1007300000F0EAF8431CF4D0200000F0B7F8802362
:100740005B0098425CD0802200215200380004F007
:10075000AFFA00255B463C22002105A833700495C2
:1007600004F0A6FA3C22002115A8149504F0A0FA82
:1007700020000295039500F08FF80100404604F038
:10078000ADFC2C2104AA200000F0CAF82C2114AAE8
:10079000200000F0C5F80A2102AA200000F0C0F8ED
:1007A00002A806F0DFF8051E22D002AB1B7A002B50
:1007B0001ED0482202AB9B181B78002B18D00300D8
:1007C00014AA04A9224804F089FC224B2A009A4664
:1007D0009B6A14A904A8019300F026F9534602006D
:1007E0009B6A854210D800F04DFB3023337098E7A8
:1007F000484604F0CBFB00F045FB3023337090E714
:10080000200000F0C7F89EE7019938005B1A1249F2
:1008100003F052FB3900114804F060FC32233370BE
:1008200000F036FB7DE7C046C010002075040010C4
:100830004D040010D06D00100D030010F46D001079
:10084000601600200C6E0010B40D00207005002012
:10085000486E001000400540946E00109C6E001021
:1008600010B5064800F012F8054800F00FF80548EA
:1008700000F00CF8044800F009F810BD60160020E4
:100880006417002068180020BC1400208023002278
:100890005B00C2507047C0467047C04680235B0073
:1008A000C058431E1843C00F7047C04680235B00EA
:1008B000C058704710B5EFF3108C72B6802252000A
:1008C0008358FF2B06DC5C1C8450C1548CF31088C9
:1008D000012010BD8CF3108801204042F9E7C0468A
:1008E00070B580256D0042590400FF26002A09DDFD
:1008F000531E0678411C435106F0CAF90023605983
:1009000024182370300070BD10B5040006F036F8CE
:10091000002801D0001B10BD01204042FBE7C0466B
:10092000F8B580277F00C35904001600002B08DDAE
:1009300006F024F8002804D0051B6B1C04D1280005
:10094000F8BD01256D42FAE72A002100300004F0CD
:10095000B5F9E35901355A1B6119E251200006F03F
:1009600097F9E0592A000021201804F0A1F9012587
:10097000E5E7C04670B58026040015007600B24257
:1009800004DD320004F09AF9A65170BD04F096F926
:10099000A551FAE78022002310B5520000218350B0
:1009A00004F086F910BDC046F8B5CE46474680B57E
:1009B0000600894606F042F8C3B29846012B29D9B1
:1009C0003078002826D00027002511E0373CE4B21B
:1009D00039281CD93738C0B24A46240102357B1C5D
:1009E0000443EDB2DBB2D455A84513D91F00705DA6
:1009F00006F00AF96B1CDBB2C4B2F05C06F004F935
:100A0000C0B2392CE2D8303CE4B23928E2D83038D0
:100A1000C0B2E1E7C0BCB946B046F8BD014B1860B2
:100A20007047C04674050020F0B5DE464E46454688
:100A30005746E0B5060083B05B480C00904604F0D2
:100A4000A5FA5A4B200099464D464C461900FFF72F
:100A5000ABFF574F143521783800013404F03EFBCA
:100A6000AC42F8D10A2004F041FA524B9A461800E1
:100A700004F026FC504604F037FC011E00D08EE046
:100A8000300005F0DBFF31000200504605F0BCFEEF
:100A9000002800D07EE04346642253430193464B36
:100AA00000259846454B464E9B46464C1DE021008E
:100AB000404605F0B7FE00283AD10322424B6B4373
:100AC000D341424A93423ED914222100484606F0BF
:100AD000BFF8002840D05B460021186801F04AF8B2
:100AE000019A6B1CAA4253D01D005C22514640461D
:100AF00004F0E4F810220021300004F0D9F82A00B4
:100B00003349300003F0D8F9300005F097FF310089
:100B10000200404605F078FE0028C8D001212D488B
:100B200004F0DCFA2100404605F07CFE0028C4D029
:100B30000121294804F0D2FA0322234B6B43D3410D
:100B4000224A9342C0D800F0A9F914222100484655
:100B500006F07EF80028BED1260014362178380031
:100B6000013404F0BBFAA642F8D10A2004F0BEF921
:100B700029001A4804F0B2FA2C00504604F0A6FBF3
:100B8000200003B0F0BCBB46B246A946A046F0BD6B
:100B90001C00F2E701210F4804F0A0FA7BE710489F
:100BA00004F09CFA6CE7C046C06E001050130020A1
:100BB000DC6E001084120020CC110020740500208F
:100BC000641300203C130020D578E92637894100C2
:100BD000346F00100C6F0010386F0010606F001041
:100BE000E46E0010F0B5DE464E4645465746E0B589
:100BF000060083B05B480C00904604F0C7F95A4BDE
:100C0000200099464D464C461900FFF7CDFE574F40
:100C1000143521783800013404F060FAAC42F8D180
:100C20000A2004F063F9524B9A46180004F048FB7E
:100C3000504604F059FB011E00D08EE0300005F054
:100C4000FDFE31000200504605F0DEFD002800D018
:100C50007EE04346642253430193464B0025984669
:100C6000454B464E9B46464C1DE02100404605F054
:100C7000D9FD00283AD10322424B6B43D341424A6B
:100C800093423ED914222100484605F0E1FF002896
:100C900040D05B460021186800F06CFF019A6B1C85
:100CA000AA4253D01D005C225146404604F006F88B
:100CB00010220021300003F0FBFF2A0033493000EE
:100CC00003F0FAF8300005F0B9FE310002004046AA
:100CD00005F09AFD0028C8D001212D4804F0FEF946
:100CE0002100404605F09EFD0028C4D0012129487E
:100CF00004F0F4F90322234B6B43D341224A93427D
:100D0000C0D800F0B1F814222100484605F0A0FF39
:100D10000028BED12600143621783800013404F0B2
:100D2000DDF9A642F8D10A2004F0E0F829001A48BB
:100D300004F0D4F92C00504604F0C8FA200003B0A7
:100D4000F0BCBB46B246A946A046F0BD1C00F2E787
:100D500001210F4804F0C2F97BE7104804F0BEF906
:100D60006CE7C046786F001088130020DC6E00101E
:100D7000E012002028120020740500209C1300209F
:100D800074130020D578E92637894100346F0010AC
:100D90000C6F0010386F0010946F0010E46E00109C
:100DA00010B5102001F0F2FB112001F0EFFB122032
:100DB00001F0ECFB132001F0E9FBD0248023240692
:100DC0005B02A36280239B02A3628023DB02A362F7
:100DD00080231B03A3621A2001F0D8FB03211A20F1
:100DE00001F0A4FB002201211A2001F0B7FB1B2017
:100DF00001F0CCFB03211B2001F098FB0022012114
:100E00001B2001F0ABFB0849084800F01FFA19202D
:100E100001F0BCFB80239B046362142001F0B6FB4D
:100E200080235B03636210BDA0860100840500205F
:100E3000D02310B502241B065A6858685968000C64
:100E40002040090C02342140D203D20F0843104342
:100E500008225B681B0C1340184302D05023184330
:100E600010BD5020FCE7C046D0231B065A689201F3
:100E700003D4802292045A617047802292049A61BE
:100E8000FAE7C046D02380221B0692049A6170477D
:100E9000D02380221B0692045A617047D0231B0680
:100EA0005A68D20203D4802252035A6170478022CA
:100EB00052039A61FAE7C046D02380221B065203F0
:100EC0009A617047D02380221B0652035A617047F3
:100ED00070B5037A04000D000C4E002B04D0B04214
:100EE00012D00B4800F082F802230022237209334B
:100EF000FF33E252B44205D005482900054A00F00C
:100F000047F870BD0448F8E70348EBE7B40F00204A
:100F100084050020C10000207C05002010B5037A64
:100F2000012B0BD00A4B984210D00A4B02201A68B2
:100F3000136F1842FCD01161012010BD85225200B0
:100F4000835C5C1C8454C0188172F5E7024BEDE7AA
:100F5000B40F0020840500207C050020016070474C
:100F60004160704785210023064A07484900136005
:100F7000536010815352054A1360536010815352DD
:100F80007047C046B40F002000FFFFFFC0100020D4
:100F900070B5114E0500841B63425C4163000F482D
:100FA0001B199B001D50C3185A6028000A0001211C
:100FB00000F076F92B680A4A17341A63B54208D054
:100FC0000849200000F0B2F90121200000F088F962
:100FD00070BD0549F5E7C0468405002030160020A5
:100FE0006406000049010020E901002070B5124E9E
:100FF0000500831B5A42534100205A000F49D21862
:101000009200505017338A18506010720021180057
:101010001C0000F065F9B5420CD00949200000F031
:10102000AFF92B68074A28001A630021002200F05C
:1010300037F970BD0449F1E784050020301600201F
:1010400049010020FF080000E901002010B5024816
:1010500000F004F810BDC0466C19002030B5002522
:1010600089B004000922002101A8009503F020FEA8
:101070000922002105A8049503F01AFE4B236A46B5
:101080006846137004A90D2205F0CAFD1521082237
:101090002000694403F012FE09B030BD70B5EFF3D3
:1010A000108C72B60D4D2B68002BFCD0BFF35F8FF8
:1010B0000724CB08C618C05C01230C40A3401C00C9
:1010C0000440034207D103433370BFF35F8F2C60AA
:1010D0008CF3108870BD100001F012FC2C0100D0C0
:1010E000024B18688007C00F7047C04600C006401A
:1010F0000021044B044ABFF35F8F02C39342FAD12D
:101100007047C046000100D0800100D0044A10782A
:10111000431CDBB2172B00D9102313707047C04655
:1011200078050020142310B50100188804331B88AB
:10113000984710BD162310B50100188802331B888C
:10114000984710BDF8B54746CE4680B50F1E19D05A
:1011500014239946043304000025012698464B4683
:101160001888434621681B88984701C4431E98414C
:10117000013540420640AF42F1D13000C0BCB94613
:10118000B046F8BD0126F8E7F8B5DE4657464E46AC
:1011900045468346E0B505200C0001F0C1F9060084
:1011A00060082100801902F0F3FE43009846804455
:1011B00007000521404602F0EBFE3B1A9A46204B01
:1011C0008146700080199C4234D81E4902F0E0FE2E
:1011D000451C5B461C680023E366226804335340C9
:1011E00006221A4080235B0123431A605346E361C1
:1011F0004B462362434601204F2B03D950214046E2
:1012000002F0C6FEA0232200E0508023E06F7C3273
:1012100045402D045B0113432D0C1D600123390053
:101220003000E36602F0B4FEF0BCBB46B246A9460D
:10123000A046F8BD044902F0ABFE451CC9E7C04614
:101240003F420F008096980040787D01104A70B5AB
:10125000821A53425A41072352429A430D4B10328D
:101260001A600D4B0D4C1A601500A3689D432B1E90
:10127000FAD166240268FF340571D5661460633CB8
:101280008833FF3CD5639563D450FFF77DFF70BD75
:101290007C05002000E0004000F0004000C000405D
:1012A00003680020D86600290DD0802118688900C5
:1012B00041400A48014080204001184301609A6083
:1012C0000122DA66704741211A684A4003490A4000
:1012D0008021490119430A60F2E7C046410200003B
:1012E00001238340002904D0034A1360034A13609A
:1012F0007047034A1360FBE780E200E000E100E092
:1013000080E100E001228240034B1B6813405A1E1B
:101310009341D8B27047C04600E100E0024B103064
:101320009B688000C058704700ED00E070B50D006C
:10133000EFF3108672B60F4A1368002BFCD0BFF390
:101340005F8F0D4B10309B6884001B590B4A9342F2
:1013500003D09D4201D001F0EBFA074B9B681D5171
:10136000BFF35F8FBFF35F8F0022024B1A6086F3DB
:10137000108870BD240100D000ED00E0CD01001008
:10138000F0B5DE4657464E464546E0B50C0083B004
:10139000EFF3108A72B65A4A1368002BFCD0BFF3E1
:1013A0005F8F1022914681444A46564B96009B68B7
:1013B0009D59554B98469D4205D0A54216D0534F96
:1013C000EB1B2F2B14D94F4B9B689D51BFF35F8FA5
:1013D000BFF35F8F00224A4B1A608AF3108803B074
:1013E000F0BCBB46B246A946A046F0BD1D00EAE7E8
:1013F000012383409B465A46454B1B681A40009286
:101400005A46444B1A60BFF35F8FFEF72CFF0190E2
:10141000002803D0814501D001F08AFA01232A0077
:101420009A4313003C49DB1B5B415943090D936808
:101430009C4208D15AE043001B189B00FB18986897
:10144000A04211D01A00062010560028F3DA009BA3
:10145000002B05D05A46314B1A602D4B1A60B2E76B
:101460005A462C4B1A60AEE706201856002821DB9E
:101470004200111889007C188846A1689960E179BA
:10148000D97106216156997100291FDBA488F91AC8
:101490006405241544440919E0240905490D240272
:1014A0002143998012181E4B9200BF181A781870A9
:1014B000BA71CCE7019800280BD1FF309071194820
:1014C0009080174A107811709871C0E7BD21090209
:1014D000E7E7154A1549D21A083A5002400D014370
:1014E0009980134952080A43DA80B0E70620105663
:1014F00013000028BCDA019A002AEAD14546E0E749
:10150000240100D000ED00E0CD0100108C0500208A
:1015100000E100E080E100E0AAAA000080E200E033
:101520009619002000BDFFFFC605002000F0FFFF58
:1015300000F8FFFFF8B5012504000543FEF793FE10
:10154000EFF3108C72B6214A1368002BFCD0BFF366
:101550005F8F1F4E2100B7681E4A1F4B891A4941F1
:101560004B431B0D59B28300F858A8421CD00623E8
:10157000D3568B421CD01223D3568B4222D01E232B
:10158000D3568B4220D02A23D35603208B4210D02F
:10159000124B1A781970A271BFF35F8F00220B4BA8
:1015A0001A608CF31088F8BDB2680D48D050EFE790
:1015B000002043001B189B00D218FF239371094B96
:1015C0009380E5E70120F4E70220F2E7240100D050
:1015D00000ED00E08C050020AAAA0000961900206A
:1015E000CD01001000BDFFFF054B064A1360064AFF
:1015F000136053609360D3601361536193617047CC
:101600008080808000E400E004E400E0024B9C461F
:1016100061448900016070474000003483680B48D2
:1016200010B5844661446244090112019A185918A0
:1016300054684B6801209C4201D802D00020C0B2FF
:1016400010BD12680B689A42F9D8F7E7FFFFFF0F49
:101650000A4B1968EFF3108072B60A68002AFCD0B2
:10166000BFF35F8F1B68BFF35F8F00221A6080F3A8
:10167000108840BF002000217047C0467819002024
:10168000F8B557464E464546DE46E0B599460CABA2
:101690001C780DAB1B78060090469A460768002C14
:1016A00011D1BC7B002C42D065003B682D19033D55
:1016B00059194B78BB73002B00D1FB7300238B703F
:1016C0004B700B7004E065003B682D19033D591900
:1016D000B2682A4B94464246E3181B0163441A60E1
:1016E0004A465A600A9A9A600B9ADA6000238B7015
:1016F0004B700B707B7B9B46002B2BD022005946F6
:10170000B8687B6898473A68002816D05B46584608
:101710005B005B445519033BA870D118D35C002BC8
:1017200000D06B705B460C707B73A34513D0F0BC8C
:10173000BB46B246A946A046F8BD5B465B005B448B
:10174000033BD3189C705119525D002A00D05A7087
:101750005B460B707C7342464B46307D00F006FBC7
:10176000051E06D05346002B03D12100306800F03F
:101770001FFD0E9B002BDAD01D70D8E7FFFFFF0F77
:10178000F0B5DE464E46574645460023E0B58DB0DF
:101790000A936B4B8200D3580B90994600239B46CB
:1017A0004B46079300F082FA079C06000F00626820
:1017B000EFF3108572B61368002BFCD0220007945B
:1017C000BFF35F8F2468637B9946002B67D09268D4
:1017D0005C4B90464B441B01984443461A685B6837
:1017E00010001900801BB94100295FDD0B9800F043
:1017F000BDFA00230026984600279A46079C636896
:10180000BFF35F8F5A461A6085F310885346002B4A
:1018100008D10028C6D10DB0F0BCBB46B246A946DF
:10182000A046F0BD0A9B414618024B461843D047DC
:10183000089009916268EFF3108572B61368002B67
:10184000FCD00794BFF35F8F0899099A002A48DB00
:10185000114303D0079B1B69002B5DD1079B1B68BD
:10186000D97B002907D04A00521819688C4649468E
:101870006244033A51704A46DA734B46079A013B79
:10188000D168CA5C0132CA545B46079A1361536837
:10189000BFF35F8F5A461A6085F3108882E70023F2
:1018A0000026984600279A460020A7E7002901D184
:1018B00000289BD10021200000F0FCFB43461E685D
:1018C0005F689B68079A9A464346DB689846D368E8
:1018D0004B44013B1B780A931B0203431361002016
:1018E0008CE72369002BB9D033003C005B1A94418C
:1018F0001A002300A74219D89F421BD059460491D1
:1019000001210391494602914146019151460798B0
:101910000091FFF7B5FEB7E700F0C8F9089A099BF8
:1019200006000F0092197B419942E5D901225242EB
:10193000D317E3E79642E1D901225242D317DDE7FC
:1019400050160020FFFFFF0FF8B557464E4645469C
:10195000DE46E0B5404D81468A466A68EFF310885E
:1019600072B61368002BFCD0BFF35F8F2E68B47B78
:10197000002C39D0670033683F19033FDB195A78D0
:10198000B273002A00D1F273A968344A8C464946E2
:10199000A2181201624411605146516030499160B1
:1019A0000021D160997059701970737B9B46002B90
:1019B00035D022001900B068736898473268002853
:1019C00020D05B4658465B005B44D719033BB87098
:1019D000D118D35C002B00D07B705B460C70737306
:1019E0005C451DD0002626E06B68BFF35F8F1C604E
:1019F00088F3108801204042F0BCBB46B246A9469D
:101A0000A046F8BD5B465B005B44033BD3189C706B
:101A1000D119D25D002A00D05A705B460B707473E6
:101A20004A465346287D00F0A1F9061EDAD021006F
:101A3000286800F0BDFBEB681B19013B19786B6847
:101A4000BFF35F8F00221A6088F310880020002EF9
:101A5000D2D108022043CFE7D4050020FFFFFF0FBB
:101A60005116001010B5124C6368002B04D00A21E7
:101A70001048FFF7CBFD10BD23000F4A102120684E
:101A800000F036FA032000F005F9032000F0DEF93B
:101A900003200A4900F024F9FFF738FB084B9C4665
:101AA000032360442375074B80006060DC60DEE741
:101AB000D4050020781900201D1600108117001091
:101AC0004000003450160020F0B504000D0006263A
:101AD0007642F717C64636196F4100B58F4213D8C4
:101AE00010D000F0E3F832003B00121A8B41002BBB
:101AF00014DC002B37D02900200000F0E1F880BC76
:101B0000B846F0BD8642ECD90026002700F0CEF89A
:101B100032003B00121A8B41002BEADD3000390005
:101B2000FFF712FF0028E6DB00239846BC460F4A69
:101B30000F4F7B6A9C4504D8B96A8E42DBD99C451D
:101B4000D9D11168EFF3108072B60B68002BFCD06E
:101B5000BFF35F8F1368BFF35F8F4146196080F357
:101B6000108820BFE5E7002AC5D0D7E77819002004
:101B70000040054070B504000D0000F097F8020029
:101B80000B0020002900801859418B4205D802D053
:101B9000FFF79AFF70BD8242FAD901204042C11777
:101BA000F6E7C04670B5060000F080F8FA2204009F
:101BB0000D00002330000021920003F00FF80019FF
:101BC00069418D4205D802D0FFF77EFF70BD844287
:101BD000FAD901204042C117F6E7C046F0B5D64613
:101BE0004F464646C0B5EFF305833F221340180029
:101BF0001038EFF3108C72B6204D2A68002AFCD002
:101C0000BFF35F8F0122110081401D4C8846616344
:101C10001C4917000E788A463100C1400F400A4225
:101C200009D1BFF35F8F2F608CF31088E0BCBA46F8
:101C3000B146A846F0BD14498200646A51588C42EE
:101C40000FD3124BD25843469E4353461E70BFF3E8
:101C50005F8F00232B608CF31088002AE6D090471A
:101C6000E4E70B4A9B00904643441A681A60BFF3AE
:101C70005F8F00232B608CF31088D7E7280100D0FA
:101C800000400540971900207C190020AC1300206B
:101C9000D03F054010B50100024A0348FFF7FEF9A6
:101CA00010BDC046AC6F001095190020034B596A57
:101CB0000A00986A596A8A42FAD170470040054082
:101CC000064A536A9942FCD807D1044B02E05A6A8B
:101CD000914202D19A6A8242F9D37047004005408E
:101CE00070B504000D00EFF3108672B61A4A13683F
:101CF000002BFCD0BFF35F8F002D1BD02000FFF71F
:101D00000DFB164981420AD02000FFF70FFB01218D
:101D10002000FFF7E5FA0123A340114A1360114B9D
:101D2000A400E550BFF35F8F00220B4B1A6086F3CF
:101D3000108870BD0B4BA200D5500122A2400A4969
:101D400020000B7893430B700449FFF719FB002127
:101D50002000FFF7C5FAE5E7280100D0DD1B0010E1
:101D600038600540AC13002097190020F0B54F46AD
:101D7000D6464646C0B507002F4C616A0D00A66ADC
:101D8000616AA942FAD18B4208D805D00120E0BC93
:101D9000BA46B146A846F0BDB242F7D9EFF3108A71
:101DA00072B6264801680029FCD0BFF35F8F012579
:101DB000BD402349204C8846097889462943C9B249
:101DC0008C46414660460870391D1E48890065638F
:101DD0000A51B9000B50216A0020294219D0616ACA
:101DE0000800A66A616A8142FAD18B4219D801D1F2
:101DF000B24216D8CC451DD00F4B1F201D625D632B
:101E000001230740BB40104A1E38136043464A4630
:101E10001A70BFF35F8F0022084B1A608AF3108894
:101E2000B5E70020BFF35F8F0022044B1A608AF3EE
:101E30001088ACE70120ECE700400540280100D005
:101E4000971900207C19002080E200E0EFF3108C4D
:101E500072B60A490B68002BFCD0BFF35F8F0123D9
:101E60008340074A0748136202789A430270BFF31F
:101E70005F8F00230B608CF310887047280100D01F
:101E8000004005409719002070B5050014001600A9
:101E9000002915D00C00002A12D080686B68984782
:101EA000296800280ED073009B196200033B1219A9
:101EB000CB18033A9C7088188A5C002A15D10670EA
:101EC000200070BD63001B197200033B9219CB18F0
:101ED000033A9E7088188A5C002A02D1047034008C
:101EE000EEE75A7004703400EAE75A700670E7E7CC
:101EF00030B583600023CCB2437301330473426076
:101F00008373C4730D000068012C06D9421C013391
:101F1000DBB2137003329C42F9D1FF2129404B0000
:101F20005918002340180338437030BDF8B5CE4629
:101F3000474606000C0080B5002907D04D00036815
:101F40006D18033D5A195778002F04D12000C0BCEA
:101F5000B946B046F8BD7900C919033988464344EB
:101F60005978894600215970517073683A002100F0
:101F7000806898473368002814D042469A189470B5
:101F800059195B5D002B00D053700F702700494634
:101F90003000FFF7CBFF390002003000FFF774FF7D
:101FA0000400D3E7424641465D19AF709A185B5C66
:101FB000002B00D06B701470E9E7C046F0B55746AF
:101FC0004546DE464E46E0B50D006B0001685B19E4
:101FD000DF1E0400C85D83B00192CA1900284CD0EE
:101FE00043001B18033BCB185E78B446002E16D175
:101FF000019E002E3ED0E67B002E04D073009B197C
:10200000CB18033B5D70E57300282FD1002353707C
:1020100003B0F0BCBB46B246A946A046F0BD720074
:102020006244033A89184A78904600224A709146E1
:102030005A70010032002000FFF726FF4346824617
:10204000002B07D05B0021684344033BCB185A7830
:10205000002A16D1424651462000FFF715FF21689D
:10206000019BCA19002BC6D10028CFD043001B18F2
:10207000033BCB1800219970C8E7019B002BBAD114
:10208000C4E750008018033809184878834648464A
:102090004870587041462000FFF7F6FE59468046CA
:1020A0002000FFF743FF414602002000FFF7ECFE4F
:1020B0008046CFE7F0B557464546DE464E46E0B58A
:1020C00083B00191457B04006B0000685B19DF1E43
:1020D000C15DC21900294ED04B005B18033BC318E9
:1020E0005E78B446002E18D1019E002E40D0E67BCB
:1020F000002E04D073009B19C318033B5D70E57379
:10210000002931D1002328005370617303B0F0BC63
:10211000BB46B246A946A046F0BD72006244033AEF
:102120008018427890460022427091465A702000F2
:102130003200FFF7A9FE43468246002B07D05B0022
:1021400021684344033BCB185A78002A17D14246F2
:1021500051462000FFF798FE019B01002068C2193C
:10216000002BC4D10029CDD04B005B18033BC31812
:1021700000209870C6E7019B002BB8D1C2E7500041
:1021800080180338091848788346484648705870C4
:1021900041462000FFF778FE594680462000FFF7B1
:1021A000C5FE414602002000FFF76EFE8046CEE7E6
:1021B00070B5040000292CD0437B8B422ED00568DB
:1021C00048004018033828188278002A21D053008C
:1021D0009B18033BEA5CEE188A4202D11BE0002AFE
:1021E00008D053009B18033BEB185A788A42F6D16B
:1021F00042785A7000230122837043702000FFF759
:10220000DDFE617B02002000FFF73EFE60730120CF
:1022100000E0002070BD43783370EBE70122190025
:10222000FFF7CCFE60730120F4E7C04610B5040050
:10223000FEF76CFF01002000FFF7E8F9FF23237190
:10224000BFF35F8F10BDC04610B50400FEF75EFF00
:1022500001002000FFF7DAF9FF23A380BFF35F8FAF
:1022600010BDC04630B50C2083B000F001FAFEF777
:1022700037FF00280ED0944B944A1A605A609A6037
:10228000DA601A615A619A61DA611A62904A5A6296
:1022900003B030BD8F4CA06700F034FA01228E4BA2
:1022A0001A60636C012BFCD103228C4B1A60894AA3
:1022B000936B012BFCD102240121894A8948053303
:1022C000009400F081F90523874A01218748009492
:1022D00000F07AF9864B5A68FF2A02D88022520011
:1022E0005A608022784C7D4B21691201804D1A6022
:1022F000002905D0606901F04BFE01300138FDD1A5
:10230000E0217B4B02201A681140802252012A43AF
:1023100011601968484003210140116004219A6846
:102320001142FCD08022802192012A4309011160D0
:10233000802252005A606F4B23616F4B5968FF290E
:1023400000D85A600321644A6B4B116002399A68C5
:102350001142FCD0E0201A681040802252011A433A
:102360001060186848400321014002201160624952
:102370008A681042FCD0802292011343802212010D
:102380001A6080225D4B52004A6063615C4B596861
:10239000FF2900D85A6080225A4BE1691201584D3A
:1023A0001A60002905D0606901F0F2FD01300138A2
:1023B000FDD1E02252490B681A4080235B012B4378
:1023C0001A60802380229B012B4312011A60802215
:1023D0003E4B52004A60E3614B4B5968FF2900D8DD
:1023E0005A608022494B216A1201474D1A60002928
:1023F00005D0606901F0CCFD01300138FDD1E0224B
:1024000041490B681A4080235B012B431A608023EB
:1024100080229B012B4312011A60802380225B00E3
:102420004B602A4BD2022362394B5968914200D249
:102430005A608022374B616A1201354D1A600029BB
:1024400005D0606901F0A4FD01300138FDD1E02222
:102450002F490B681A4080235B012B431A608023AD
:1024600080229B012B4312011A608023DB024B6008
:10247000174B6362284B5A68FF2A02D88022520009
:102480005A608022254BA1691201234D1A60002950
:1024900005D0606901F07CFD01300138FDD1E022FA
:1024A0001D490B681A4080235B012B431A6080236F
:1024B00080229B012B4312011A6080235B004B603A
:1024C0000E4BA361E4E6C046C0150020006CDC02A0
:1024D0001BB70000008000403CB0004030B000401E
:1024E000002F68590080024000389C1C00C0024048
:1024F00030800040001BB7003C800040405973070B
:102500005480004054B000406080004060B0004003
:102510006C8000406CB000404880004048B00040F3
:10252000014B8000C0587047C0150020094A830045
:1025300094464022634410B51C68C0006240C02429
:1025400014408022520113431C60034B9C4660449C
:10255000416010BD04C00140004001400A4B8000B2
:102560009C4604236044002901D00C230821002A42
:1025700000D10B00026853400C221A4080235B01FB
:10258000184302607047C04604C001400123D022B6
:102590008340120693629361094A83009446402265
:1025A00063441968C0004A40C02111408022520192
:1025B00013431960034B9C460523604443607047F6
:1025C00004C0014000400140F0B5C646040000B51B
:1025D0000C2090461F000E0001F0DAFC4101091AA0
:1025E0008D01691AC90009188901404601F0D0FC23
:1025F000069B3F041A0323681743002B22DB184B6A
:10260000184DE21853425A4180235B019C46120345
:10261000154B62441A60154B1A601100AB68994360
:10262000FBD1C022231D92011A4321232660A06002
:1026300013602368002BFCDA0823E760136080BC7A
:10264000B846F0BD3F2322681340B342D7D1A368F8
:102650001B051B0D8342D2D1E368002FCFD1EEE7DB
:102660000040FDBF00C0004000E0004000F000401E
:102670008023024A9B000343D362704700800540D9
:10268000184B0200184810B5D8618020174BC005C0
:102690001860174C1748046000290AD0E021164B37
:1026A000C9041960002A09D18022134B12061A604E
:1026B00010BDE021C9041960002AF5D053019B1A0E
:1026C00098008023801800015B04984200D30B48D7
:1026D00080220B4BD2051860024B5860064B1A60E3
:1026E000E6E7C046008005402131B76A00B00540EA
:1026F000FCFF01000820014000A00540FFFFFF0093
:102700004C160020AA23064A1B0113602F230549FB
:10271000D360054B19605368002BFCDA7047C04644
:102720000040024000B0FA0000600240F8B504002A
:1027300006200D00FFF7F4FE002844D02A4B2B4959
:10274000E21853425A418023DB039C469205284BF2
:1027500062441A60274B1A6010008B689843FBD1C3
:10276000214B8021E3185A425341234A5B00490020
:1027700099520620FFF7D4FE2900C00001F008FCA2
:10278000C30921D140270121260080256162A3626F
:1027900000232C36AD0135432B600620FFF7C0FE29
:1027A0003900800001F0F4FB6023E26A53406E229E
:1027B0001A4080235B0133431A60104B23631023BC
:1027C0002B600D3BA364F8BD0D4A934203D900234F
:1027D0000C4F0D49D8E77F221040013040089F017F
:1027E00019003F180300CFE70080FCBF00C0004085
:1027F00000E0004000F000408C19002001030000C0
:10280000FEFF0000C0FF3F00FFFF00002C4B2D4AE1
:1028100070B51A602C4A2D4B2D491A6014008B6834
:102820009C43FBD12B4D2C4EB54208D2013E761B6A
:10283000B60808CD984723000134B342F9D1FFF719
:1028400011FD264A214B1A60214A9368DB43DB01C4
:10285000DD09002BF9D14022214B224C224E9A67F0
:102860005A671A67DA66B44208D223682000002B40
:1028700020D00834FFF7E8FCB442F6D31B4E1C4CC2
:10288000C022A168300002F019FAA660FEF730FC01
:10289000FEF7AAFEFFF7E6F8164C174EB44208D230
:1028A000013E361BB60808CC98472B0001359E42E6
:1028B000F9D170BD0834FFF7B9FCB442D5D3DDE7D8
:1028C00000E00040BFCDFBFEFE7F3C0000F000407A
:1028D00000C00040780A0020880A0020FFFFFF01A6
:1028E00000F00140680A0020780A00200000002063
:1028F00000ED00E0880A0020980A002000BEFDE7F5
:102900000FB400B5084883B002F040FB049B002BD5
:1029100007D005A91800019101F0F2FA034802F06E
:1029200035FB00BEFDE7C04610700010306F001090
:1029300010B50148FFF7E4FF207000109A4200D262
:10294000885470477047C046F8B557464E464546CE
:10295000DE46E0B599460A9B07009A460D9B8846DD
:10296000934615000B9E9B0710D10C9B9E420DD2E7
:102970009D1B14000E005D4422004B4601343100C3
:102980002020B847A542F7D1B0460B9E002E27D095
:10299000444675195346AA1B013E985D21004B46DB
:1029A000B847002EF6D123002C0098460D9B9B07BC
:1029B0000FD55B46E51A0C9BAB420AD946469846B2
:1029C00022004B46310020200135B8470134A8458C
:1029D000F6D82000F0BCBB46B246A946A046F8BDDA
:1029E0002C00E3E7F0B54F464646D646C0B584B066
:1029F00098460EAB1B78129F994694460D9C109BEF
:102A0000119EBA0725D4002E4BD19C4200D3BFE0C3
:102A100001223A4092461F2C00D9B8E00C9A551E6C
:102A2000302201E0202C03D001342A55A342F9D8EA
:102A30005246002A0DD0A6420BD9202C44D00C9A25
:102A4000551E302201E0202C3ED001342A55B442DC
:102A5000F9D1FA064DD57A053FD4002C39D10F9B18
:102A6000102B00D179E00F9B022B00D18AE030239C
:102A70000C9A012413704B46002B3FD02D230C9A47
:102A8000135501340C9B624600930397434602960C
:102A90000194FFF759FF04B0E0BCBA46B146A8461E
:102AA000F0BD012215003D40AA463A422FD04A46C9
:102AB000002A02D10C323A4200D0013E9C42BAD2E6
:102AC0001F2CABD9202E27D92024FA06DAD57A0577
:102AD00003D4A3422DD0A6422BD00F9B102B32D073
:102AE000022B20D0202CCDD030220C9B1B191A7029
:102AF0000134202CC6D04B46002BBFD17B070DD410
:102B00003B07BFD520230C9A13550134BAE79C42EA
:102B10009FD21F2C00D881E720249AE72B230C9A00
:102B200013550134AEE7202CACD00C9B1B1901349B
:102B30003AE0631E012C92D00F9A102A2AD0022A62
:102B40002FD01C00D0E7BB060ED4202C9AD00C9BB3
:102B50001A19013478231370C4E7BB060DD4782307
:102B60000C9A01241370BFE7202C00D18AE7582269
:102B70000C9B1B191A700134B4E758230C9A0124DA
:102B80001370B1E70C9A603301241370ACE7202472
:102B900000265EE7023CBA06E9D40C9A12191C0022
:102BA000D8E70C9A9246534462221A709AE7C046BC
:102BB00010B5002800D110BD02F098F9FBE7C0461F
:102BC0000B0010B5002802D049681B68984710BD5B
:102BD000F0B5DE4657464E464546E0B59BB09B46AF
:102BE000249B89469846259B0B900C924046424672
:102BF00019009A4601F09DFC002800D0D8E001227F
:102C000040465146774B524201F08EFC002800D0DE
:102C1000CEE0012240465146734B524201F06EFC19
:102C2000002800D0C4E0002200234046514601F0B5
:102C300065FC002800D0B9E1424653460A92099348
:102C40008023289ADB001A400E92289A1A4201D15A
:102C5000062326930A9A099B1600134300D0C7E067
:102C6000289B002500261B0500D49BE100230D9323
:102C7000269A0D9B9A4200DC9FE1D01A431E2693B0
:102C80008023289ADB001A430023002728920D9303
:102C9000279B0024BB4200D9DC1B0223289A1A4040
:102CA0000E92289A134203D07B427B415B421C4028
:102CB0000D9B002B07D00A9809992A00330001F0D8
:102CC000BCFB0A900991002200234046514601F0C6
:102CD00015FC002805D0802000068446099961442F
:102CE0000991289A414B0B9D13400493269B0A9A05
:102CF0000293099B03940092019349465B46280086
:102D00000C9A00F08BF90400002F62D0289B22005F
:102D100098061F23C0179843631C984649465B4694
:102D20006530A8470D9B0025DA179C18DB0F9A46E3
:102D30005440013F01E0202D13D00AAA94461F23DE
:102D4000200063440A2101355E1901F021F9303178
:102D5000317020000A2101F01BF926000400092E21
:102D6000E9D805230693002304930A3303935346BB
:102D700005970B9F029312AB009342465B46494670
:102D800038000195FFF72EFE0E9B0400002B20D08B
:102D90000C9BC51A279BAB421BD91E0022005B4629
:102DA000494620200135B8470134AE42F6D810E03C
:102DB000289B42460493279B49460393269B0B98E6
:102DC00002935346009201935B460C9A00F026F959
:102DD000040020001BB0F0BCBB46B246A946A0468A
:102DE000F0BDC046FFFFEF7FFFFFEFFFFFF7FFFFE4
:102DF000734B099F9C467800400D604401F0ACFB8A
:102E0000704A714B01F037FB704A714B01F00CFBBB
:102E10003B03704A1B0B1A4304000D0030001100E5
:102E20006D4B002201F0F7FA6C4A6D4B01F023FB69
:102E300002000B002000290001F0F6FA01F0A4FBCB
:102E40000D9001F089FB674A674B04000D0001F00B
:102E500012FB0022654B01F0E7FA01F095FB644A92
:102E60000600644B2000290001F005FB040030003F
:102E70000D000F9601F070FB5F4A604B01F0FBFA0A
:102E800002000B002000290001F0C5FA02000B002F
:102E900006000F0001F0EFFA320004000D003B00C5
:102EA0003000390001F0C0FA002210901191544B0B
:102EB0002000290001F0C1FA0022524B01F0B4FABF
:102EC00002000B002000290001F0B7FA00224E4B4F
:102ED00001F0AAFA02000B002000290001F0ADFA6F
:102EE0000D008021040032003B000020C90501F0E4
:102EF00092FA02000B002000290001F095FA02006E
:102F00000B001098119901F098FA0022314B01F052
:102F10008BFA3E4B0F9C9C4664440022230501F033
:102F2000AAFA05000E0002000B000A98099901F0A8
:102F3000E5FA00280AD00D9B2800013B31000D93D3
:102F40000022304B01F079FA05000E00C6270D99DA
:102F50002B0063318F42BF4128997F420437090516
:102F600000D495E6334300D182E6099C284A21002B
:102F7000284B0A9801F0D0FA002808D0002221003E
:102F8000254B0A9801F0BAFA002800D070E6269B7B
:102F9000002B00D17CE60E9B5A1E9341269AD31A31
:102FA000269375E6002304270D9371E643460A93A2
:102FB00080231B065344099342E6002326935FE6D1
:102FC00001FCFFFFFB799F501344D33FB3C8608BD4
:102FD000288AC63F0000F03F0000F83F61436F635E
:102FE000A787D23F71A379094F930A400000E03FC1
:102FF0001655B5BBB16B0240EF39FAFE422EE63FE3
:1030000000002C400000244000001840FF03000096
:103010002D431CEBE2361A3F80842E41F0B54E461C
:10302000DE4657464546E0B597B09946209E219F1B
:10303000229B8346984607910C923B003200300059
:10304000390001F076FA002800D0A9E10122300011
:103050003900CA4B524201F051FA002800D0E1E099
:10306000012230003900C64B524201F05DFA0028BF
:1030700000D0B7E0002230003900C24B01F054FA12
:10308000002800D099E0002230003900BE4B01F04A
:1030900035FA002800D090E00022002330003900EB
:1030A00001F02CFA002800D0B1E000230D93249BFE
:1030B0005B0501D40623984608AB9C4617220024E2
:1030C00030234146624404E0013413550139202C79
:1030D00001D00929F8D888463000390001F054FAA7
:1030E0004346DA00A94B05009B181A685B680892F2
:1030F000099301F031FA02000B003000390001F0B1
:103100008AF9089A099B01F0B6F90A900B9101F02F
:103110005FFA824601F01CFA02000B000A980B9934
:1031200001F079F900229A4B0A900B9101F0FCF919
:10313000002800D1C0E001239C46E244504601F043
:1031400007FA02000B000898099901F0DDF9002840
:1031500002D000239A4601354346002B6AD008ABC3
:1031600017269C4608956644554614E001235B42A9
:1031700043440A2128009A4600F00AFF0134303106
:103180003719397028000A2100F002FF092D00D8F4
:10319000D0E0D0460500202CE8D10EAB98460323A2
:1031A000249A1340012B00D196E02023249A019306
:1031B0000392239A434602921EE0249B58460493AE
:1031C000239B00960197039343460C9A0293079919
:1031D0004B46FFF7FDFC17B0F0BCBB46B246A94614
:1031E000A046F0BD249B5B070ED40322694B2499B3
:1031F0000192039123990291009358464B460C9AF1
:103200000799FFF7A1FBE6E70422634BEFE73B00DA
:1032100032000020002101F0FEF8012306000F001B
:103220000D9344E7249B0393239B02930423019370
:103230005A4BE1E7280001F08FF902000B00300043
:10324000390001F0E8F8524B002206000F0001F0AF
:1032500055F90EAB984600280AD1002230003900FB
:103260004B4B01F061F9002802D1EB0700D5013585
:10327000202C94D008AA94461723280063440A21DE
:1032800001341E1900F05CFE3031280031700A2133
:1032900000F056FE051EEBD10323249A1340012BA8
:1032A0001BD0202C00D180E70D9B002B35D02D2288
:1032B0004146631C0A5579E700220A980B99344B62
:1032C00001F01CF9002800D046E75346002B51D1ED
:1032D00001239C46E2443FE72024239B002BE0D0BF
:1032E0000D9B002B03D1249A0C33134202D0239B55
:1032F000013B2393239BA342D3D908AB9C461722BF
:1033000030236244202C00D14FE723990134135518
:103310008C42C6D0202CF8D147E7249B5B0724D4ED
:10332000249A2300120700D440E7202241460133AB
:103330000A553BE75746089D202C00D12DE7220077
:1033400030214046002F09D00132B154202A00D14B
:1033500023E7D3431B191B18002BF5D10EAB98465E
:103360002E234146541C8B5482E72B224146631C7A
:103370000A551BE7DB0700D4EEE6A9E7FFFFEFFFE6
:10338000FFFFEF7F65CDCD4165CDCDC12872001027
:103390000000E03F2C700010307000103C700010F6
:1033A000249B0393239B029303230193004B23E766
:1033B00038700010F0B5DE464E4657464546E0B53B
:1033C0009FB01C00289B91460993C94AC94B8B4664
:1033D00008901A60002900D118E2002320789A464C
:1033E000002800D11AE226001D005C460AE02A00EF
:1033F0006F1C4B46089D2100A8473D0001363078E0
:10340000002870D02528F2D110239B46083B9A460D
:10341000043B9846023B00219C46721C1078160023
:103420000300203BDBB2102B03D8B34F9B00FB58AB
:103430009F460300303B092B32D900230A932A28E8
:1034400068D0002398462E283ED00300683BDBB2AC
:10345000122B1CD8A94A9B00D3589F460123013246
:103460001943DBE7634601321943D7E7434601328C
:103470001943D3E75B4601321943CFE75346013284
:103480001943CBE780235B007078194301360300B2
:10349000253BDBB2532BAAD8994A9B00D3589F46B1
:1034A00000270300B800C01901364000C018337867
:1034B00030381A00303A0700092AF3D90A90180068
:1034C000002398462E28C0D180237078DB00194352
:1034D0000300303B721C092B00D8A1E12A2800D13F
:1034E000B2E11600B1E7A346AA462C00D14503D8A5
:1034F00001235B424B449A464B46524659460020B4
:10350000089DA84720001FB0F0BCBB46B246A946A4
:10351000A046F0BD099B40CB0A96002E03DB5078F5
:103520000993561C8DE72838014370420A9009938D
:103530005078561C85E7782800D1DFE1582800D163
:103540004CE26F2800D14FE3622801D100F030FC3B
:1035500010230A009A430B92692801D000F0A9FCBD
:103560000A230C934B0500D5D0E10B9A8023110060
:103570009B0019408B461A4200D0A1E28023110023
:103580005B0019408A461A4200D0B6E313005B067E
:1035900000D5EDE2130009991B0601D400F076FC7A
:1035A00008C91BB2D8171A18424092B20991934623
:1035B000DA0F1292002B09D1802310220B99DB0025
:1035C0000B4091430B91002B00D0E4E20B9A612356
:1035D000920600D541230EA91F228C46DBB262441D
:1035E0000A3B5F461395A34655460C9CB2460D9385
:1035F00016000AE03033DBB201357355A74200D222
:10360000EDE2202D00D1EAE207002100380000F0B1
:10361000BFFCCBB20929EDD90D9A94466344DBB2C5
:10362000EAE780239B007078194301362FE7707812
:10363000682800D1CDE180230136194327E770784F
:103640006C2800D1BFE180235B00194301361EE7DF
:10365000462800D19BE10722099B0491073393433D
:103660000A9A19000392424602920CC908980092E5
:10367000019309912A004B462100FFF7CFFC013648
:103680000500BCE62A006F1C4B46089D2100252042
:10369000A84701363D00B2E68B0700D4ADE1099B97
:1036A0002A009A466B1C9846534601CB21009A4645
:1036B000089F4B46C0B2B8470A9B9C466544012B05
:1036C00000D886E2089B4746B04626004C469946FD
:1036D0003A002300013731002020C847AF42F7D11C
:1036E000A1465346340046460993013687E6C04654
:1036F000B533001048160020447000108870001088
:10370000D4700010099B04CB9B4643460992002BC2
:1037100000D1C6E013789C46002B00D1BDE34346A0
:10372000013B099A0133D0180A9F130001E083423C
:1037300003D05A780133002AF9D1099A0A979B1AC3
:103740000B9380230A00DB001A400C92194204D02C
:103750000B9B434501D943460B9302231A000A40B1
:103760000D920B4200D187E16046002800D168E14C
:103770000C9B002B00D10DE1A844C246099B574683
:103780005B1B9846089BB2462A0026004C46994689
:1037900009E023003100551CC8474346585D002806
:1037A00000D126E12A009742F3D1A1463D00340022
:1037B00056460D9B002B00D043E15B460136099332
:1037C0001DE6099B1A0008CA9246002B48D0212208
:1037D00011438B460EA884461F216144099500229F
:1037E0000F27A4460D0002E0202A0CD00B003C005D
:1037F0001C4020003730092C00D807380132A8546B
:1038000019090F2BF0D86446099D32E0DC4B207873
:10381000089300239A46002800D0E4E5002465E6DA
:10382000434606000A9F9800C018013240008019E4
:103830001678030030003038303B0928F3D93000C7
:10384000984616000A9700E6099B023604CB90467C
:10385000D2434046D2171040804609933078F4E5B1
:10386000102208009043113210438346002249057C
:10387000B0D55B4606930823059343460493102373
:1038800003930023029316AB019200932A004B4648
:1038900021000898FFF7A6F8534605000136099362
:1038A000ADE513789C46002B00D1F7E202235B4282
:1038B00037E7202302009A43472A04D180231B01C3
:1038C000194302239843452801D120231943072295
:1038D000099B0491073393430A9A190003924246C5
:1038E00002920CC908980092019309912A004B4654
:1038F0002100FFF76DF90136050080E510230C93D8
:103900000C230A009A430B924B0503D501230B9A13
:103910009A430B92692800D127E6642800D124E657
:103920000B9A802311009B0019408B461A4200D04D
:1039300066E1802311005B0019408A461A4200D0DC
:1039400039E213005B0600D53CE113001B0600D4EE
:10395000A6E2099B04CB1204120C934609935B4622
:10396000002B00D09AE10B9A1033110099430B9170
:10397000520500D492E100239A460B9B06930A9BC2
:103980000593434604930C9B039300230CE12023EF
:10399000194360E6099B0A9A5B1B98464B46914681
:1039A0001F00B2462600089C2A003B003100A047B9
:1039B00043460135585D0028F6D14A463400B946E1
:1039C00056460A92F5E6C0239B00B07819430236AA
:1039D0005DE5C023B0781943023658E50C230A0090
:1039E0009A4314331A43103B0B920C934B058DD41E
:1039F00096E7A14634005646DBE60A9A012A00D82B
:103A000053E26B1E9F18089BB04626004C46994611
:103A10002A002300013531002020C847BD42F7D1DC
:103A2000A14634004646099B3A0001CB2100984646
:103A30007D1C4B46089FC0B2B847434601360993E8
:103A4000DDE40B9B0A9AA8469A4200D8B5E6944654
:103A50006544ED1A089B4746B04626004C469946F9
:103A60003A002300013731002020C847AF42F7D188
:103A7000A14634004646A0E60B9A0A99531C91428F
:103A800000D814E24B199B1A1F00089BB24626006F
:103A90004C4699462A002300013531002020C847B2
:103AA000BD42F7D10A9BA14601330B93099B340019
:103AB0001B7856469C466046002800D058E67CE6B7
:103AC0000722099B07339343013294469C44624684
:103AD0005F6809921A68FB17109311931098119957
:103AE000030053400E930B007B400F9394460E9AB5
:103AF0000F9B121A8B410E920F93FB0F624612938B
:103B000000233A439B463DD00B9A6123920600D591
:103B100041230022DBB20EA90A3B8C4692460D934C
:103B200043461F3262441395159655460E9E0F9FCD
:103B3000A24690460C9C14930CE03032D2B243461D
:103B400001355A55BB4500D18AE1202D00D18AE1CB
:103B500006000F00220000233000390000F05AFA5E
:103B6000D2B2092AE9D90D9B9C466244D2B2E6E75B
:103B7000FF23099904C913401A00099117E5C046AB
:103B8000452900100B9A1033110099430B915205EF
:103B9000BAD500239A460B9B06930A9B059343468E
:103BA00004930C9B0393129B02935346019316AB11
:103BB0002A00009321004B460898FEF713FF0136B8
:103BC00005001CE4FF22099B02CB11408B460993A0
:103BD000C5E65346454609930136FFF710FC5646A5
:103BE0005C46AA46139DD6E708230C930B910B99CC
:103BF000642800D084E60B9B5B0500D586E6B4E420
:103C00000722099B07339343013294469C44624642
:103C100009921A685B6810009B4613005A461343CA
:103C200007D10B9A1033110099430B91520500D51F
:103C3000A1E60B9A6123920600D541230022DBB254
:103C40000EA90A3B8C4692460D9343461F326244AE
:103C50005F461295A34655460400B24690460C9E18
:103C600013930DE03032D2B2434601355A5500234A
:103C7000BB4200D100E1202D00D100E104000F0083
:103C8000320000232000390000F0C4F9D2B2092A22
:103C9000E8D90D9B9C466244D2B2E5E70B9A6123BA
:103CA000920600D54123DBB20EA90A3B1F228C46A7
:103CB0000D93230062445C461295170055469B46BF
:103CC000B2460C9E08E03033DBB201357B55B4427E
:103CD0000ED3202D0CD004003100200000F058F944
:103CE000CBB20929EFD90D9A94466344DBB2ECE7D5
:103CF00056465C46AA46129D3FE6099B1A0008CA32
:103D0000D91713925A184A409246DA0F1292002B92
:103D100008D1802310220B99DB000B4091430B91BB
:103D2000002B2BD10B9A6123920600D541230EAABA
:103D30001F279446DBB20A3B0D9567445D46099305
:103D4000A3465446B2460C9E08E03033DBB2013540
:103D50007B55B4420ED3202D0CD00400310020003E
:103D600000F016F9CBB20929EFD9099A94466344B9
:103D7000DBB2ECE756465C46AB460D9D0B9B2A003A
:103D800006930A9B21000593434604930C9B0898D5
:103D90000393129B013602935B46019316AB00938B
:103DA0004B46FEF71FFE139B05000993FFF727FB09
:103DB00002230C931AE7099B04CB92461293002A24
:103DC00008D1802310220B99DB000B4091430B910B
:103DD000002B2BD10B9A6123920600D541230EAA0A
:103DE0001F279446DBB20A3B0D9567445D46099355
:103DF000A3465446B2460C9E08E03033DBB2013590
:103E00007B55B4420ED3202D0CD00400310020008D
:103E100000F0BEF8CBB20929EFD9099A9446634461
:103E2000DBB2ECE756465C46AB460D9D0B9B2A0089
:103E300006930A9B21000593434604930C9B089824
:103E40000393002302935B46019316AB00934B460A
:103E5000FEF7C8FD129B050009930136FFF7CFFA64
:103E6000B44200D871E6149B54460E960F97AA46AA
:103E70009846159E139D8EE6A64200D8FBE6139B3E
:103E800056469846AA465C46129D76E508C9D8175C
:103E90001A1842400991FFF78AFB00230B9350E464
:103EA000099B04CB9346099359E52F00BBE50B937F
:103EB00001E6063B0C939AE60EB4012210B585B0DC
:103EC00007AC08CC01000094524204480394FFF769
:103ED00071FA05B010BC08BC03B018473D290010AA
:103EE00000B585B0039101210290009303481300AF
:103EF0004A4202A9FFF75EFA05B000BDC12B0010CF
:103F000010B5094A0300146884B0002C08D00122BF
:103F100000910648524203A9A047012004B010BDF9
:103F200001F034F80020F9E748160020B12B00100A
:103F300001480421014B18470006002045110010DC
:103F4000124A936F9B0815D29066D166002905D05E
:103F5000FFE7FFE7FFE7516F106F704704B580215F
:103F60000906C2175140002800D0C84302F078FE6D
:103F7000002104BDF0B5146E556E576F166FFFF734
:103F8000E3FF1466556657671667F0BD000000D062
:103F9000114A936F9B0813D210665166002905D011
:103FA000FFE7FFE7FFE7516F106F704704B5002888
:103FB00001D00020C04302F053FE002104BDC046E2
:103FC000F0B5146E556E576F166FFFF7E5FF146668
:103FD000556657671667F0BD000000D094464E4AFC
:103FE000926F9208624601D230E0C046F0B54A4E68
:103FF000B56F6D08FCD3346E756E776F366F00F059
:1040000025F89446444A1466556657671667624613
:10401000F0BDC0469446404A926F9208624601D273
:1040200058E0C046F0B53C4EB56F6D08FCD3346E19
:10403000756E776F366F00F04DF89446364A146609
:104040005566576716676246F0BDC046002B24DBF5
:1040500011D000293EDA00B5C943404200D10131F8
:1040600000F038F8C943404200D10131DB435242ED
:1040700000D1013300BD002AEBD1002801D1002975
:1040800005D00020C90FC90701D1C043410800B5C0
:1040900002F0D6FD0022002300BD00B500290ADB96
:1040A000DB43524200D1013300F014F8C9434042CF
:1040B00000D1013100BDC943404200D10131DB4391
:1040C000524200D1013300F005F8DB43524200D1E7
:1040D000013300BD002923D1002B18D1002A0CD0B8
:1040E000BC460D4F38667A6600210023FFE7FFE7E4
:1040F000FFE77A6F386F67467047002801D007489E
:10410000010000B502F09CFD0022002300BD02006A
:104110000B00002000217047000000D0FFFFFFFFD0
:10412000002B00D0BFE0130C28D1002AE7D080B4C8
:10413000114F39667A66FFE7FFE730B4040C7B6FF6
:10414000396F1B0423433B667A66FFE7FFE7FFE70F
:10415000C04684B27B6F3D6F1B0423433B667A6687
:10416000FFE7FFE7C04600232C042D0C7A6F386F61
:1041700000196941B0BC7047000000D0F0B594460A
:104180000025140E01D112020835140F01D11201BD
:104190000435940F01D192000235D40F01D15200A1
:1041A0000135D40B0134254F7C66254C3C660E0C42
:1041B00093B2FFE7FFE7FFE73C6F6643360C7703F8
:1041C000BE467343DF0B5B04C01AB941130C734343
:1041D000DB18C91ACE086643360CB64493B2734353
:1041E0001F0F1B01C01AB941130C73431F0B1B0592
:1041F000C01AB941860D8F023E436643360C092D25
:1042000024DB520A7243801A7703460A6643360C4F
:1042100016235B1BDE40DF40BF1964466643821BEA
:104220007046043506330100D940A840C01900D3B8
:104230000131A24206D20023F0BD0000000000D0F0
:10424000FFFFFFFF121B0130F3D3F1E709277F1BAC
:10425000FE406446A2B27243801A00D20139220C99
:104260007243130C1204821A99410B0070460435F4
:1042700013370100F940A840801900D30131002B09
:1042800002D1A2420AD2F0BD013000D30131121B8B
:10429000FAD2013BF8D1A24200D2F0BD013000D3E6
:1042A0000131121BF7E7F0B51C0C00D080E00CB414
:1042B00000251C0A04D11B02160E334312020835D6
:1042C0001C0B04D11B01160F3343120104359C0B48
:1042D00004D19B00960F334392000235DC0B02D1D0
:1042E00092185B4101351C00971864410134464F18
:1042F0007C66464C3C660E0CFFE7FFE7FFE7C046D6
:104300003C6F6643360C7703BE4697B27743C01BBB
:1043100000D20139C01B00D201399FB27743C91BBB
:10432000C91B170C77437E04FF0B801BB941CE08D5
:104330006643360C0C2D33DBB644120B1F053A4393
:104340001B0B97B27743C01B00D201399FB2774352
:10435000C91B170C77433E043F0C801BB941860DE7
:104360008F023E43664329277F1BFE400C3D774664
:10437000AF40BF1930BCA2B2ABB272437343801AD4
:104380009941220C7243130C1204801A99410200C5
:104390000B000137001BA941F9D2781E0021F0BDA6
:1043A0000C277F1BFE4077467F0BAF40FF19E0E7ED
:1043B00000245D1C07D0144F7D663966FFE7FFE7D8
:1043C000FFE7FFE73C6F95B29EB265436643401B33
:1043D000B141150C1E0C6543664336042F0C3E4359
:1043E0002D04401BB141994204D202000B00200071
:1043F0000021F0BD01D19042F7D3801A99410134D8
:104400009942F2D3F6E70000000000D0FFFFFFFF63
:1044100048404140484018B41B4B5B68FC46019340
:1044200008BD04DFAF46001018B4174B1B68FC46EC
:10443000019308BD00DFB94600109446134A926FFD
:10444000920809D2624618B40F4BDB68FC46019310
:1044500008BD0CDF714900100C4AF0B5146E556EA2
:10446000576F166F6246FFF7EEFF084A14665566EF
:1044700057671667F0BD18B4034B9B68FC46019361
:1044800008BD08DF15480010980B0020000000D080
:10449000FFB550404240504059404B40594000E029
:1044A000FFB5154F4C00640D03D0BC4204D10C0382
:1044B00014D80020090D09055C00640D03D0BC422E
:1044C00004D11C030AD800221B0D1B0501264B40FA
:1044D00009D44B4003D58B4200D18242FFBD9942A3
:1044E000FCD19042FFBD0B43DB1803431343F5D0CF
:1044F000C9434918FFBD0000FF07000000B5FFF7E2
:10450000CFFF804100BDC04600B5FFF7C9FF01D90C
:10451000002000BD012000BD00B5FFF7B9FF01D9A3
:10452000002000BD012000BD00B5FFF7B1FF8041B4
:1045300000BD012040054A00121804D85A00121884
:1045400001D800207047012070470020704700000C
:104550000021002805D17047C1174840401AFAD001
:10456000C90713B5064B1B6898470CBC441CA240F6
:104570001005120B0349091B09051943114310BD0E
:10458000741900201F04000010B54C00620D802338
:10459000D218DB00D21A5B057E2A10DD9E3A13DAB0
:1045A000CC170903490819435242D1406400013431
:1045B0001532202A05DAD0400843604310BD0020A0
:1045C00010BD0846604310BDC80FC018013810BDAB
:1045D00018B4044B5B6AFC46019308BD24DF214BF1
:1045E00000100000980B0020132370B51D78012DDA
:1045F00015D010DD1C48FCF79DFD1C4C01008022ED
:10460000200000F05BFB022D06D01948FCF78AFD64
:10461000184B186070BD154C174BA364F5E7164B8B
:10462000124C23606360A360E36023616361A36154
:10463000E36123626362A362E36223636363A36350
:10464000E36323646364A364E36423656365A36530
:10465000E36523666366A366E36623676367A36710
:10466000E367A364D1E7C04653440000980B0020E1
:104670004C330000741900207D46001007B56046D9
:1046800001880A0A0230DF2AFAD1C9B2820804D3AB
:10469000028840880004104300E00068014A50503E
:1046A000039007BD980B00200FB403BC0CBCF0B501
:1046B0000124E407634000E0F0B50C0DCF0F661E47
:1046C0003605891B640503D3C943404200D3013139
:1046D000640D03D0661CF60A07D0E41B00207F009F
:1046E000791C89078912803C24031D0DDF0F6E1E83
:1046F00036059B1B6D0503D3DB43524200D30133C8
:104700006D0D03D06E1CF60A07D0ED1B00227F0052
:104710007B1C9B079B12803D2D032F1B661B58D4CF
:10472000A446202E46DA20371400BC401D00BD40B0
:10473000F24033412A4380185941CB0F05D0C94379
:10474000C043002264425041514162464D0D28D180
:104750000D0D07D100281FD0241940414941013ACD
:104760000D0DF9D0640006D3013000D30131002CC7
:1047700001D140084000013A0BD4941CE40A04D152
:1047800012051144DB071944F0BDD907204B19432A
:1047900000E0D9070020F0BD0029DDD1002CDBD1DD
:1047A000F0BD0132C6074008CD0728434908002E56
:1047B000E1D0D9E73C2E29DA203E40371400BC4036
:1047C00000D00124F24014431A00BB401C43D3170D
:1047D000ACE7AC46202F08DA20360400B4400D00C8
:1047E000B540F84039412843A5E73C2F0CDA203F7B
:1047F00040360400B44000D00124F84004430800CF
:10480000B1400C43C117EAE710001900002494E7F7
:104810000000F07FF0B50C0D661E3605891BE60A18
:104820006405640D02D0651CED0A04D0002001214E
:104830000905803C2403A4461C0D671E3F05DB1BB5
:10484000E70A6405640D02D0651CED0A04D000225D
:1048500001231B05803C24037740644497B484B251
:1048600096B27443070C7E43150C6F4380B26843C5
:10487000361802D3012000043F183004350C00190B
:104880007D41844688B29AB250430C0C62431F0C9F
:104890007C438EB27E43921902D301263604A419BA
:1048A0001604170C3618674101BC81B29AB2514305
:1048B000040C62431B0C5C4380B25843121802D3B1
:1048C0000120000424181004130C401863412D1813
:1048D0005E410020474106BC88B293B258430C0C9D
:1048E0006343120C544389B251435B1802D3012134
:1048F0000904641819041A0C091862416D1856410C
:104900000020474118BCF902720D1143F0026A0DF4
:104910001043ED020A0D03D16D1940414941013B9D
:10492000124E9B1B7600B3420ED26D0007D30130AE
:10493000002671416646354301D1400840001B0501
:10494000C918E4072144F0BD0BDA013306D1013068
:1049500004D101314F0D01D04908F2E7E1070020F1
:10496000F0BD013631050020EBE70000FF03000039
:10497000F0B51C0D671E3F05DB1BE70A6405640DDF
:1049800002D0661CF60A04D0002201231B05803CDD
:104990002403D0252D060026F6432E661E096E66DA
:1049A000CE0FF619B44649004F0D02D07E1CF60A10
:1049B00003D000200021403F3F033E1BB600B4441B
:1049C000013F7F05C91B49082E6F013676089C02FE
:1049D000950D25437543ED137543AD1301356D10EA
:1049E000F603761B0CB4CC02450D2C43A2B2B3B235
:1049F0005A43270C7B43350C6F43A4B26C431B19FD
:104A000002D3012424043F191C041D0CA4187D4169
:104A100024196D41009A91B2ACB26143170C7C43EA
:104A20002B0C5F4392B25A43A41802D30122120402
:104A3000BF182204230C52187B41019C6C431B19A4
:104A4000520ED9010A434401A01A81B2B2B25143B5
:104A500003145A43360C734387B27743D617D219DF
:104A600000277E4136049B191704160C7F185E41FF
:104A70007316ED18F301002680337541A90F06D196
:104A80006400690AE8055B0A184309D22FE0042292
:104A9000944480337541A90AA8059B0A184326D37C
:104AA000404149412404009A019B0D005543641B79
:104AB0004343E41A95B286B27543170C7E43030C48
:104AC0005F4392B25A43B61802D301221204BF18B0
:104AD0003204330C52197B4152429C41002C02D4C7
:104AE0000022013051414008CA071043490802B072
:104AF0006246D7079210084BD218084B9A4203D24D
:104B000012058918C919F0BD0020002A01DC3900FE
:104B1000F0BD01331905F5E7FD030000FE070000B5
:104B2000002200B5203200F004F8080000BD0000AB
:104B300000220B150AD410B5944600F031F8141475
:104B4000013400DA0021CB17144C2047002000214B
:104B500070476244343A0CD40C2A07DA04009140BE
:104B6000904052422032D440214310BDD843D94313
:104B700010BD203207D40C469440524220321141DD
:104B8000D040204310BD0800C917203203D4524240
:104B90002032104110BD1800190010BD534B0010F9
:104BA0000A0DCC0F531E1B05C91A520503D3C94366
:104BB000404200D30131520D03D0531CDB0A07D011
:104BC000121B00206400611C89078912803A1203BD
:104BD000014BD21A70470000FF03000051434343CA
:104BE000C9188C46110C83B24B4310B4040C6143BA
:104BF00092B280B2504362431C041B0C001910BCDB
:104C000059411304120CC01851416144704700000F
:104C1000132310B512481C78FCF78CFA0100012C04
:104C20000AD003DD80220F4800F048F80E48FCF758
:104C300079FA0E4B186010BD0A4C5422200000F087
:104C40003DF80B4B6365A365E36523666366A36666
:104C5000E36623676367A367E3672362E361E5E7CE
:104C600053460000980C00204C33000074190020BB
:104C7000754C001007B5604601880A0A0230DF2A29
:104C8000FAD1C9B2820804D30288408800041043D4
:104C900000E00068014A5050039007BD980C0020C6
:104CA00001480421014B184710060020451100104F
:104CB000014B1B681847000010060020014B5B6881
:104CC0001847000010060020030010B5080011006E
:104CD0001B68984710BDC046F0B546464F46D646BD
:104CE000C0B5437C80460E001700002B46D0002A3A
:104CF0003FDD4B1E9946244B0125002400209A4697
:104D00000DE04B461B5D0D3B5A425341325DDBB219
:104D10000A2A0BD02B00013401359F421ADD002CEA
:104D2000EFD14346325D1B7C0A2AF3D1002BF1D12F
:104D3000A04204DA4346211A1B68301898474346BC
:104D400050461B6802219847013428002B0001358A
:104D50009F42E4DC874204DD4346391A1B68301861
:104D60009847F619013E33780D3B5A42534142466B
:104D70001374E0BCBA46B146A846F0BD0368110002
:104D800030009847F5E7C046DC720010F0B5C64623
:104D90000C000968060000B5802906D04B1C236072
:104DA0006418267180BCB846F0BD0F4B1D68002DFD
:104DB00016D0231D98460D4F02E0ED68002D0FD050
:104DC0002B68002BF9D03B68002B01D0AB42F4D10B
:104DD000280041462268FFF77FFFED68002DEFD1E4
:104DE00001230021DBE7C046281600202C160020F6
:104DF000F0B557464E464546DE461C00D023E0B58A
:104E00001B061F68344B83B006000D00180001A973
:104E100091469A4601F02CFF8046002808D1019B5C
:104E20007FB29F4204D0504601F02AFF01239846EA
:104E30006B1C03D1300001F001FE0500002C27D1CE
:104E4000264F274B1C68002C18D04B46002B21D135
:104E5000244B994602E0E468002C0FD02368002B15
:104E6000F9D04B461B68002B01D0A342F3D12000A0
:104E70002A003100B847E468002CEFD14346002BEC
:104E800025D103B0F0BCBB46B246A946A046F0BD52
:104E9000154FD6E7134B99460A239B4602E0E46878
:104EA000002CEBD02368002BF9D04B461B68002B5D
:104EB00001D0A342F3D12A0031002000B8475A465E
:104EC0006B4620001A7101A90122B847E7E7504656
:104ED00001F0AEFED5E7C046700A0020D94C0010A4
:104EE000281600202C160020C94C0010F0B5CE4624
:104EF000474680B583B06B46DE1CD02330701B065E
:104F00001C681F4B804601A91800994601F0B0FEAD
:104F1000071E20D01B4B1C68002C28D01A4D02E025
:104F2000E468002C0FD02368002BF9D02B68002BED
:104F300001D0A342F4D1200001223100FFF7CCFEC2
:104F4000E468002CEFD1002F11D1404603B0C0BC63
:104F5000B946B046F0BD019B64B29C420BD04846B6
:104F600001F08EFE074B01271C68002CD6D1484665
:104F700001F05EFEE9E7034B1C68002CCED1E4E7AC
:104F8000700A0020281600202C16002070B504009E
:104F900001F054FD00230100050001222000FFF76D
:104FA00027FF084B1C68002C06D06368002B05D037
:104FB0009847E468002CF8D1280070BDE468002C04
:104FC000F3D1F9E7281600200D4A1368002B13D0FF
:104FD000834202D109E0984208D01A00DB68002B16
:104FE000F9D1002900D0D06070471A000029FBD108
:104FF000DB68D360C160F7E70029F5D01060F3E704
:1050000028160020F0B54746CE46D02380B51B06B3
:105010001D682E4BA5B007000C00180003A9984688
:1050200001F026FE061E07D1039B6DB29D4203D000
:10503000404601F025FE01368422002103A8FFF737
:1050400037FE23003A00224803A9FEF749FF039BDD
:105050000700002B14D11F4B1C68002C06D063687E
:10506000002B0BD09847E468002CF8D1002E27D1F4
:10507000380025B0C0BCB946B046F0BDE468ECE7E6
:10508000144B1D689946002D1ED0134C02E0ED68AC
:10509000002D11D02B68002BF9D02368002B01D0F4
:1050A000AB42F4D1039B28001A0004A90193FFF737
:1050B00013FEED68002DEDD14B4603951C68CCE73F
:1050C000404601F0B5FDD3E70395CFE7700A002015
:1050D0008D4D0010281600202C1600200FB400B5AE
:1050E00083B004A901C90191FFF78CFF03B008BC8C
:1050F00004B0184710B500F043F810BDF0B50D1E10
:1051000015DD0E4B0D271A680D4B4519D318594262
:105110004B410C495B005E5E20210478A64207D01B
:1051200093691942FCD101301460A842F5D1F0BD59
:1051300093691942FCD11760F2E7C046901900202C
:105140000080FCBF8C19002030B504000D1E12DD5C
:1051500000201021094B013C1A689369194208D1BB
:10516000013093691942FCD1136823548542F4D16C
:1051700030BD0028FCD103204042F9E790190020FF
:10518000E12110B50B4B0C481B780C4B49021B78E6
:105190000B4B1860FDF7CAFA02210020FDF7C6F993
:1051A00002210120FDF7C2F901210648FFF70CFF9B
:1051B00010BDC0464C7400100040034050740010F5
:1051C000901900202006002003BDC04610B5040041
:1051D000FCF70AFAA04710BDF0B5040087B00F2015
:1051E0000E001700FCF78EF8002105000F20FCF7D9
:1051F00077F8002300220092019301230293D02329
:1052000004960594002600240121022003971B0622
:10521000002C14D01A6D1042FCD05C6540BF1A6D92
:10522000114203D120BF1A6D1142FBD09A6DA242E8
:105230000AD000266C46B200A458E9E79A6D1A6DB0
:105240001142FBD140BFE5E70136052EF2D9290016
:105250000F20FCF745F807B0F0BDC0460B4B0C4AD9
:1052600010B5934201D201235B421900094A9850BC
:1052700004329B50084A094B0948CA50094B9A68A6
:10528000044B9C466144FFF7A7FF10BD00080420B3
:1052900000000420F4070000CD510010FC070000BE
:1052A000C951001000ED00E00A0010B5002903D03C
:1052B000024B00211B68984710BDC04634060020F1
:1052C00010B55C220021FFF7F3FC10BD10B50028DB
:1052D00002D05C21FFF7E8FF10BDC04610B55C228C
:1052E000FFF7ECFC10BDC046002303604360064B93
:1052F0008360064BC360064B0361064B4361064B5C
:10530000836100207047C0460123456789ABCDEF1C
:10531000FEDCBA9876543210F0E1D2C30023036069
:105320004360054B8360054BC360054B0361054B30
:105330004361054B836170470123456789ABCDEF1E
:10534000FEDCBA9876543210F0E1D2C3F0B557467D
:105350004E464546DE46E0B5060048780B788A782A
:1053600000021843CB78120410431B06034348790C
:1053700095B01ABA0B79039200028A791843CB7957
:10538000120410431B060343487A1ABA0B7A099297
:1053900000028A7A1843CB7A120410431B064A7B18
:1053A0000F7B03431CBA12028B7B3A43CF7B1B0457
:1053B000487C1A433F0617430A7C8B7C000210434B
:1053C000CA7C1B04184312060243487D0B7D12BAA7
:1053D0000C9200028A7D1843CB7D120410431B06F9
:1053E00003433FBA1BBA0B970D930B7E487E8A7E10
:1053F00000021843CB7E120410431B060343487F70
:105400001DBA0B7F8A7F00021843CB7F1204104322
:105410001B0603430E951DBA20232222C85C0133CC
:10542000CB5C0F951B020343885C000418432323C5
:10543000CB5C1B0603431DBA2423CA5C0133CB5C3F
:1054400005951B02134326228A5CFE4D12041A4363
:105450002723CB5CAC461B0613431BBA29221093AF
:1054600028238A5CCB5C12021A432A23CB5C1B04E0
:105470001A432B23CB5C1B0613431ABA06922D2228
:105480002C238A5CCB5C12021A432E23CB5C1B04B8
:105490001A432F23CB5C1B061343312218BA302347
:1054A0008A5CCB5C12021A433223CB5C07901B044C
:1054B0001A433323CB5C70691B06134335221FBA92
:1054C00034238A5CCB5C12021A433623CB5C0897E8
:1054D0001B041A433723CB5C11941B0613431BBADE
:1054E0003922009338238A5CCB5C12021A433A2398
:1054F000CB5C1B041A433B23CB5C1B0613431FBA34
:105500003C23CA5C0133CB5C01971B021A433E2348
:10551000CB5CF7681B0413433F228A5C3169120697
:10552000414013431ABA0B00F16802920B4043400A
:105530001B20B168C1410A00B169614452180221BF
:10554000CF41B84645469B18039A376994466F4049
:10555000B56863442F40356972696F40B94DAC46F8
:105560006244BF18099A94461A00C2416744D71989
:10557000B268CA419446424665466A4045461A406A
:105580005540B04AA94692463569CB4155442A0058
:105590003D00A246C54152444A44A9466546644678
:1055A0005D403D406540AA46A64D4A44A9461500C7
:1055B0000B9CC541C844A146CF41C844A9461D0023
:1055C0007D4015405D40D044AA469E4DC144A8464A
:1055D0004D460C9CC541C444A046CA41C444A8469B
:1055E0003D004C46554025400D9CD444E044A44623
:1055F0007D40AB46934D44466544AA464546C54169
:10560000AC4653445B449C444B461500CB415D4043
:1056100025400E9C5540A146AB468A4D64464D44FC
:10562000AA466546C541A9464546CD4157445F4413
:10563000B9442F001D007D4025405D40AB46814DA3
:105640000F9CAA464D46A046C541C244A8466546A1
:10565000CD4152445A4490442A003D004C465540A6
:105660002540059C7D40A446AB46764D44466544A6
:10567000AA464546C541AC4653445B449C444B4610
:105680001500CB415D402540109C5540A146AB46DE
:105690006C4D64464D44AA466546C541A9465744EB
:1056A0005F44B94447461D00CF417D402540069CDC
:1056B0005D40A046AB46634D4C464544AA464D4628
:1056C000C541A8466546CD4152445A4490442A00FB
:1056D0003D0055402540079C7D40A446AA46594DB3
:1056E00044466544AC464546C541AB4663445344D5
:1056F0009B444B461500CB415D402540089C5540DE
:10570000A446A9464F4D5C466544AC465D46C5413E
:10571000AA4667444F44BA4447461D00CF417D40E6
:105720002540009C5D40A446A946464D544665442C
:10573000A8465546C541AC465D46CD4142444A4423
:1057400094442A003D0055402540019C7D40A146DF
:10575000A8463C4D029C4D44A9466546C5414B4474
:10576000A9464344994453461500CB410A935D40F2
:105770006346A0461D405540AA46324D119C454403
:10578000A8464D46C5414744A846039D5744654039
:105790002C00059DB8446540009C674665401F2469
:1057A000E541CF414B4603950A9D7D401D400A9B34
:1057B0005D40AB46039D234BAC4663449A4643464B
:1057C000C3419C464B46CB4152445A4494440B9DA2
:1057D000099A04936A401300109D049A6B40019D3E
:1057E0006B401D003B0053404246E541134062467A
:1057F000A946C2417B409B46124B09954B449A46B1
:10580000119D91460C9A0A9B55402A0053445B44D3
:10581000069D994443466A40029DCB416A4015006B
:10582000E541049A11935A406346A8461A40049BE6
:105830000A955A409346034A079D424490464A4679
:10584000C24101E09979825A924647445F44BA4482
:105850006746CF410D9ABC460B9F4B4657406F4061
:10586000039D119A6F40E7413D006746A8465740A7
:105870001F405740FE4ABB46424417005246049B15
:10588000C2419846474490460B950C9A0E9D5F4442
:105890006A40089DB8446A40099D4F466A40E2410B
:1058A000CF411500624604977A405746A9464346C1
:1058B0005740BB46EF4F0C95119D4F44C341A9463D
:1058C0003A000F9D4A4499460D9B57466B40009DF8
:1058D000CF416B400A9D5A446B40E3411D00049B3D
:1058E00091447B403A004746AB465F40BA46E14FA1
:1058F0000D955F443B004F46C7416344BC46474655
:10590000CF4153449C440E9D059B11975D402F0051
:10591000019B0B9D5F406F403B001700E341119DD1
:1059200098466F404D460E9363466F40BA46D14F3E
:10593000C3414744B846049F0F9D47449846574487
:10594000B8444F46CF411297109F029B7D405D4067
:105950000C9B5D40E541119B0495129D6B40654693
:105960006B409B46C34B049D99464346AA46C341A0
:10597000D1449A464A445A4492446246CA41069DDA
:10598000059B10926B401A00039D0D9B6A405A4084
:105990001300E341109D129A9C466A4045466A40B6
:1059A0009346B44A3D00624494465246C2419146F1
:1059B0004246CA410593119B574663445B44994450
:1059C0001300079A55402A00099D6A400E9D6A40BF
:1059D0001500E541AC46109A0F955A407A4093461F
:1059E000A44A069D624494464A46C2419046089A9B
:1059F000129F55402A0067440A9D5F44B8446A409C
:105A00005746049DCF416A4015001A00E541BB4648
:105A10007A404F46AC46069545467A409246954AAE
:105A2000C54162449446109A6244AC465244944440
:105A30004A46CA411700079A009D11976A400B9D7C
:105A40006A40059D6A4015005A46E5417A4047463E
:105A5000A9467A409246874A07954A44914662464B
:105A6000C2414B4491464246CA415344019D994428
:105A70001300089A67466A400C9D6A400F9D6A4071
:105A80001500E541A846119A08955A407A40924679
:105A9000784A009D424490464A46C241C3449046DB
:105AA00062465F46CA415744B844029F93467D40D0
:105AB0002A000D9D5F466A40069D6A4015001A0047
:105AC000E5417A404F46AC467A409246694A119F7A
:105AD0006244944667443A004746C741BC46109525
