:020000041000EA
:1000000000B5324B212058609868022188439860DF
:10001000D860186158612E4B002199600221596106
:100020000121F02299502B49196001219960352056
:1000300000F044F80222904214D00621196600F024
:1000400034F8196E01211966002018661A6600F04E
:100050002CF8196E196E196E052000F02FF8012189
:100060000842F9D1002199601B49196000215960AB
:100070001A491B48016001219960EB211966A021F2
:10008000196600F012F800219960164914480160C1
:100090000121996001BC002800D000471248134993
:1000A000086003C880F30888084703B5996A0420EC
:1000B0000142FBD001200142F8D103BD02B5186610
:1000C0001866FFF7F2FF186E186E02BD00000240BE
:1000D000000000180000070000035F00212200005C
:1000E000F4000018222000A00001001008ED00E03C
:1000F00000000000000000000000000074B24E7A12
:1001000000200420F7010010C3010010C5010010F9
:10011000C1010010C1010010C1010010C101001097
:10012000C1010010C1010010C1010010C701001081
:10013000C1010010C1010010C9010010CB01001065
:10014000CD010010CD010010CD010010CD01001037
:10015000CD010010CD010010CD010010CD01001027
:10016000CD010010CD010010CD010010CD01001017
:10017000CD010010CD010010CD010010CD01001007
:10018000CD010010CD010010CD010010CD010010F7
:10019000CD010010CD010010CD010010CD010010E7
:1001A000CD010010CD010010CD010010CD010010D7
:1001B000CD010010CD010010CD010010CD010010C7
:1001C00000BE00BE00BE00BE00BE00BE00F04BF888
:1001D000103800BEF2EB88712C7E03105C7E031099
:1001E0003402001090A31AE700202149086006C8D5
:1001F00081F3088810471F48006800282FD10DA4FC
:100200000ECC002902D000F012F8F9E71A491B4A77
:10021000002000E001C19142FCD1194988471949E9
:1002200088471949884700BEFDE701C901C29A42C3
:10023000FBD370475C7E0310C0000020800F0020BD
:100240001C8D031000000420000004201C8D0310EE
:1002500000100420001004200000000070470B482C
:1002600007F0B6FD0047EFF30580C0B2704700000D
:1002700008ED00E0000000D0800F0020FCEB002023
:10028000595E00107D1100107D5F00105756000070
:1002900006005250ABB36053703203100600525048
:1002A000861C030280320310060052505422A29D85
:1002B0008C32031005005250DE65F4681C8D03106B
:1002C000F8B5C04610B5064C2378002B07D1054B76
:1002D000002B02D0044800E000BF0123237010BDB2
:1002E000D822002000000000A8130310044B10B512
:1002F000002B03D00349044800E000BF10BDC046F6
:1003000000000000DC220020A81303107047C04644
:100310000020704710B5024808F0A2FEFEE7C04674
:10032000A813031030B5184C83B0A01D09F086FE49
:1003300020000E3009F08EFE20000A3009F096FEF3
:100340002000123009F09EFE02226B462169A27540
:100350000091A18A9A719980A268E3682068616817
:1003600003F02AFC6B4622690092A28A9A80A27D41
:100370009A710FCC03F02EFC09F090FE01000348A7
:1003800008F016FF03B030BDA8050020C01303100D
:100390000A0010B50021084B03E00131D0331429C5
:1003A00007D018688242F8D1044808F001FF002005
:1003B00010BDEB31F8E7C046800F0020E4130310B6
:1003C00070B5164D02002B00002403E00134D03339
:1003D000142C1ED018688242F8D1002112F000FBC4
:1003E000D0235C430021285912F004FB2859002136
:1003F00012F0FAFA2859002112F002FB28590022C3
:10040000002112F003FB285912F0EAFF00232B51C0
:1004100070BD034BEB34E858DFE7C046800F002087
:1004200030CF0000F8B54746CE469846384B80B5E9
:100430000E00170099461D00002403E00134D0355A
:10044000142C58D02B689E42F8D1002F37D0434649
:10045000002B22D1D025654330002E1D39894E4412
:1004600011F03AFF4D4480220021300008F08AFC50
:10047000903530007A89796808F08AFC2B78032B54
:1004800014D0072B30D0012B27D0380011F09AFB65
:100490000020C0BCB946B046F8BD3000398911F023
:1004A0001BFF380011F08EFB4046F2E7210019488F
:1004B00008F07EFE04232B70E7E70124644230003D
:1004C000FFF77EFFD0234A4663432100D3581248EA
:1004D000320008F06DFE0020DBE721000F4808F035
:1004E00067FE02232B70D0E721000D4808F060FE64
:1004F00008232B70C9E7002FDFD04346002BCCD157
:10050000084808F0ADFD380011F05CFB0020C0E7A2
:10051000800F002054140310FC1303103C1403102C
:10052000701403102414031070B5054808F098FDEA
:10053000044D054C2A00210000200FF095FCF9E73E
:10054000901403103CCE0020F856002070B50C002B
:10055000151E18D14021200012F026FA002120009B
:1005600012F03EFA2000094912F04AFA2000084928
:1005700012F040FA2000074912F036FA002220005B
:10058000054912F043FA280070BDC0460D03001063
:10059000910300102504001011030010F0B5D64699
:1005A00046464F46C0B53F4D84B028000FF094FD3D
:1005B0003D4808F055FD002398463C4B00249A46E0
:1005C0003B4B782699460134802C1ED02300E7B29D
:1005D00033403442F7D0782BF5D000230F2200931C
:1005E0003900504601336A4410F0FAF840B200284E
:1005F000E9DD43464A4641460133DBB257540B2BF3
:1006000018D001349846802CE0D14146294E2A4822
:10061000316008F0CDFD3368002B17D1274B984689
:100620004146274808F0C4FD04B0E0BCBA46B146D4
:10063000A846F0BD234808F013FD0A211D4E1E48B0
:10064000316008F0B5FD3368002BE7D01E4B002465
:100650009846174F21003A5D404608F0A9FD3368DF
:100660000134A342F6D8002BD8D0144B002498466E
:10067000395D28000FF04AFD102128000FF0C0FD61
:100680000422414628000FF0DBFD012128000FF075
:1006900043FD642005F04EF833680134A342E7D8E7
:1006A000BEE7C046B0460020EC140310CC06002084
:1006B000AC55002034570020001503101C15031002
:1006C00024150310CC1403104C150310F0B5DE46AE
:1006D000454657464E460023E0B59FB03C220021D8
:1006E0000FA80E9308F04EFBD34B1A6898465200A1
:1006F00000D19AE1D14B8821994604338C46079367
:100700004B4663449B4600235C461D00CB460123B9
:1007100006A92B40CB76237A6F10092B00D979E1FB
:10072000C74A9B00D3589F46022329002372C5481D
:1007300008F03EFDC44E04223100079830F046F820
:100740008246002800D1ADE2079A1378422B00D0F0
:100750005DE15378412B00D059E19378442B00D0D0
:1007600055E1E06B08F04EFAA66B02900391B74991
:10077000606B08F00AFA08F045FA32000090019127
:100780002900B34808F014FD43461A68520041E1BD
:100790006668276805F06CF8B14204D800D036E1ED
:1007A000B84200D833E12900AA4808F001FD25E14C
:1007B000002244232900E254A74808F0F9FCA74E80
:1007C000A74B3000D95D99460FF0A0FC0221300004
:1007D0000FF016FD06A98C461B2363441900012265
:1007E00030000FF02DFD012130000FF095FC64204A
:1007F00004F0A0FF4B468022D95D300001230FF0AA
:10080000C1FC0C278523FF375B009A46F25CF35D41
:10081000934200D187E393498946934200D378E31A
:100820005A1CF255F318997A48460FF095FB534637
:10083000F25CF35D9A42F0D148460FF089FB4846DE
:100840000FF084FB29000200874808F0B1FC402229
:1008500000210EA808F096FA2C210EAA48460FF0A7
:10086000A5FB0EA82FF018FB40220021A0630EA8C4
:1008700008F088FA0EAA0A2148460FF097FB0EA846
:100880002FF00AFB07F0E2FD0022784B07F04FFD46
:1008900007F024FEA76B061CE063380008F090F90F
:1008A000311C08F072F96063002F00D08DE129003F
:1008B0006F4808F07DFC43461A6827725200A9E091
:1008C000674B664E9946D95D30000FF01FFC002142
:1008D00030000FF095FC012130000FF01DFC64206A
:1008E00004F028FF4B468022D95D300001230FF031
:1008F00049FC0C278523FF375B009A46F25CF35DC9
:100900009A4200D115E357498946934200D3FEE24B
:100910005A1CF255F318997A48460FF01DFB5346BE
:10092000F25CF35D9A42F0D148460FF011FB484665
:100930000FF028FB0DAE307048460FF023FB7070AF
:1009400048460FF06DFB06ABDB7EF35C322B5ED1CD
:100950000623237243461A6852005BE0290045488B
:1009600008F026FC642004F0E5FE06ABDB7E424A7C
:10097000002113700EA8402208F004FA079E3000F0
:100980002FF0F6FE3D4B02009A46180031000FF0A2
:1009900037FB2C2150460EAA0FF008FB38490EA851
:1009A0002FF09AFE002800D049E12900354808F0D0
:1009B000FFFB0223237243461A6852002AE02900F3
:1009C000314808F0F5FB0023E36363630023A3636E
:1009D0005B461868002800D192E2037D002B00D00E
:1009E0005BE12A4B2A491A882A4B11F0B5FC0028F2
:1009F00000D1DCE05B461868FFF7E2FC00232372BD
:100A000043461A68520005E0234808F029FB434694
:100A10001A685200D0239C46079B0135D033E3442B
:100A20000793D034954200D271E61FB0F0BCBB46AC
:100A3000B246A946A046F0BD34570020800F0020E2
:100A4000E4180310441803106018031000007A44DF
:100A5000A81803102018031048170310B0460020F0
:100A6000AC5500204CE400206017031080842E4118
:100A70007817031080160310385700208C58002078
:100A8000A0160310A41603106C150310D4EB00205D
:100A9000204E00204D050010DC1803102900DF480F
:100AA00008F086FBDE4BDF4E9946D95D30000FF033
:100AB0002DFB002130000FF0A3FB012130000FF0CF
:100AC0002BFB642004F036FE4B468022D95D3000BB
:100AD00001230FF057FB85235B00F25C0C23FF33EF
:100AE0009A46F35C934200D120E2CF498946934273
:100AF00000D30AE251465A1C7254F318997A4846B8
:100B00000FF02AFA85235B00F25C5346F35C9A42AD
:100B1000EDD148460FF01CFA48460FF033FA0DAEFF
:100B2000307048460FF02EFA707048460FF078FA91
:100B300006ABDB7EF25C302A00D1CCE1312A00D159
:100B40005FE1322A00D1E6E14426A35D092B00D9FA
:100B50004CE12900B54808F02BFB02232372A35D6A
:100B60000133A35543461A68520053E76668276865
:100B700004F07EFEB14204D800D048E7B84200D865
:100B800045E72900AA4808F013FB33E74423002275
:100B9000E2546668276804F06BFEB14204D800D0C6
:100BA00035E7B84200D832E72900A248FFE604F052
:100BB0005FFE0023A04A8018594101232372434657
:100BC0001A6820606160520024E7079F802200219C
:100BD000380008F0D7F8994BA66B0593984B04930F
:100BE000984B0393984B0293606B08F00BF832001C
:100BF000009001919549380007F092F83A002900D9
:100C0000934808F0D5FA5B461868037D042B00D0A2
:100C1000F4E6079900237F2214F05EFA011E00DA41
:100C2000BBE104F025FE0023834A801859410723C5
:100C3000237243461A68206061605200EAE6434628
:100C40001B685B00994600D11AE1002308951D003E
:100C5000230000264C46994605E00136F6B23500E1
:100C6000A64200D30AE1D0207A4B70439C469130D3
:100C700060440EA92FF030FD0028EED176482E00FA
:100C8000089D08F0EDF943461A684C465200B242FE
:100C900000D8F5E002232372BCE6FFF791FB5B4628
:100CA00018689EE6E06B07F0ADFFA76B029003911A
:100CB0006A49606B07F069FF07F0A4FF3A000090F3
:100CC00001912900664808F073FAE36B6349606B91
:100CD000099307F05AFF0023226C62490B900A9295
:100CE000CB5661499800C0188300C31889461F007D
:100CF0004F44192200213800089308F043F83900C6
:100D00000A2228002FF02EF908990A2212314944AC
:100D10000A982FF027F9099807F074FF0B0008993B
:100D200002000C310800514F4844390006F0F8FF2A
:100D30000B9807F067FF0B0008990200881D4844D4
:100D4000390006F0EDFF08990422881C31000026C6
:100D5000484408F01DF8434B9E57454B09931B78B8
:100D60005BB2052E55D0052B53DD013676B2099BBB
:100D700000270A950B94089308E0089B01371B781D
:100D800001367FB25BB276B29F4221DA0C24A246D2
:100D9000B10089198B00C91848468A440B00CA441F
:100DA000544645188A1C06314944123300914B447D
:100DB00029004A44B8B2019401F06CF9052EDCD147
:100DC000089B01371B787FB25BB200269F42DDDBB8
:100DD000244A0A9D0B9C1670052B00DD17E6099A24
:100DE0000133137043461A68520013E63A00290093
:100DF000204808F0DDF90923237243461A6852009F
:100E000008E65B461B6829001A7D1B4808F0D0F9EC
:100E1000CFE5002B00DCC3E00026A8E7A4150310F3
:100E2000AC550020B04600204CE40020081603100A
:100E3000801503105C160310002D3101B01703104C
:100E4000B8170310C0170310C81703109417031026
:100E5000E0170310800F0020D816031000007A441A
:100E600068180310F2EB002044480020A01803107B
:100E7000BF05002030160310BC1503104C46089D1A
:100E80000EA82FF075FC020020000EA9093007F013
:100E90007FFF402200210EA807F074FF2C210EAA2C
:100EA00050460FF083F8402200210EA807F06AFF99
:100EB0000EAA0A2150460FF079F80EA82EF0ECFF8A
:100EC000FA2302002064DB00984235D92900364815
:100ED00008F06EF96DE5584600237F22334900681B
:100EE00014F0FAF804F0C4FC0023314A8018594188
:100EF0000323237243461A6820606160520089E52B
:100F000011F0ACFF5B46186067E5FF21F7E5FF21B4
:100F100002E5FF2188E45B461B6829001A7D25480D
:100F200008F046F914E5244B994685E4224B99468E
:100F3000EFE5214B9946F7E406ABDA7E1F49079BA4
:100F40001F4806F0EDFE1E482FF012FC06001D4B58
:100F5000D95D1D4F38000FF0D9F8012138000FF08E
:100F60004FF93200164938000FF06AF901213800B4
:100F70000FF0D2F8124A2900144808F019F9052395
:100F8000237204F075FC0023094A80185941434636
:100F90001A682060616052003CE50D48FFF705FCCF
:100FA00051460C4A11701AE7F4160310C04700208E
:100FB000002D3101E01503104CE400202017031030
:100FC00038570020AC550020B046002028170310E9
:100FD00008180310F2EB002010B5064C8022002107
:100FE000200007F0CFFE2000034B044A044906F01E
:100FF00097FE10BDC04700200C19031014190310F0
:101000002019031070B51A4C82B0A37D022B17D0A3
:101010006D4623690093A38AAB80A37DAB71E3681F
:1010200020686168A26802F0C7FD23690093A38A63
:10103000AB80A37DAB710FCC02F0CCFD02B070BDD4
:101040000C4808F00DF80C4B0120196808F092FFCD
:101050000A480B4A010008F06FF903E0FA2080000B
:101060000EF06AFF08F082FE0428F7D1E6E7C046DA
:10107000A8050020B41403104048002025030010E8
:1010800015030010A823F0B580220024314D324F03
:101090002E68DB008FB00021FC5212013000049456
:1010A00006940794089407F06DFE05AB019304AB1A
:1010B00031002A4A009302203B0003F021F90599F0
:1010C00004980EF0C3FC0100012804D0244808F065
:1010D0006FF80FB0F0BD08AF07AE05990223214AA3
:1010E00004980294019700960EF002FD079B089A5F
:1010F0001D4909A806F014FE06A909A802F020FC63
:10110000069A1A4B05991A6004980423184A029407
:10111000019700960EF0ECFC0A22002107982FF0B0
:101120005FFF144B6A46188069466B460004000C4A
:101130009B7E527E097E01906846C07E00900E48DC
:1011400008F036F8802200212868120107F01AFE04
:10115000BFE7C04640480020DC4800203419031097
:101160008C190310945203105C190310204E0020B8
:1011700070420310D4EB00206419031010B50EF078
:1011800089FF08F021F818480EF0D6FE80200001F3
:1011900007F0A2FD154C20600EF04CFF02F08EFC13
:1011A00002F0ACFC02F07AFC02F0B8FC02F0F2FCB7
:1011B0000F480EF0A5FE01F005F8FFF723FFFFF73B
:1011C00061FF206807F0C6FD00200A4A0A490EF0B8
:1011D00015FDFFF701FF09481AF0C6FDFFF7DEF91C
:1011E000FFF774FAFCE7C046B80B00004048002047
:1011F000CD490010A8050020F85600202905001050
:1012000010B503480EF09CFE02480EF099FE10BD8A
:101210004CE400208C580020F0B54E46DE46574680
:101220004546D0248023E0B5240683B0DB019846F0
:10123000A3616B468025DE1DEF23FE4FAD0131001B
:10124000A56101223370380030F096F8434665619D
:10125000636103233100A5610122337038009B468E
:1012600030F08AF843466561636180233100A561EF
:1012700001223370380030F07FF8434665616361C6
:1012800002233100A5610122337038009A4630F004
:1012900073F843466561A361CF233100A561012244
:1012A0003370380030F068F84346656163610023AD
:1012B0003100A561012233703800994630F05CF8A6
:1012C000434665616361C1233100A561012233702A
:1012D000380030F051F842463023656131006261D8
:1012E0003800A5610122337030F046F84246ED2304
:1012F00065613100A2613800A5610122337030F0D0
:101300003BF8642342466561310062613800A561A3
:101310000122337030F030F84246656162615A460E
:101320003100A56138003270023A30F025F84246AB
:1013300012236561310062613800A56101223370BA
:1013400030F01AF84246812365613100626138004D
:10135000A5610122337030F00FF84246E823656141
:101360003100A2613800A5610122337030F004F829
:10137000852342466561310062613800A561012222
:1013800033702FF0F9FF4246656162614A463100D1
:10139000A5613800327001322FF0EEFF424678230B
:1013A0006561310062613800A561012233702FF060
:1013B000E3FF4246CB2365613100A2613800A5619D
:1013C000012233702FF0D8FF424639236561310086
:1013D00062613800A561012233702FF0CDFF2C230C
:1013E00042466561310062613800A56101223370B7
:1013F0002FF0C2FF4246656162614A463100A56135
:101400003800327001322FF0B7FF34234246656155
:10141000310062613800A561012233702FF0ACFF0A
:1014200042466561626152463100A5613800327002
:10143000013A2FF0A1FF4246F72365613100A26116
:101440003800A561012233702FF096FF4246202319
:101450006561310062613800A561012233702FF0AF
:101460008BFFEA23424665613100A2613800A56125
:10147000012233702FF080FF4246656162614A4667
:101480003100A5613800327001322FF075FF4246FD
:10149000656162614A463100A561380032700132EF
:1014A0002FF06AFF4246C02365613100A261380017
:1014B000A561012233702FF05FFF4246232365614F
:1014C000310062613800A561012233702FF054FFB2
:1014D000C123424665613100A2613800A561012245
:1014E00033702FF049FF424665616261102231007E
:1014F000A561380032700F3A2FF03EFF4146C523F8
:1015000065610122A16138003100A56133702FF0BF
:1015100033FF41463E23656101226161380031009D
:10152000A56133702FF028FF414628236561012211
:10153000616138003100A56133702FF01DFF414615
:10154000C72365610122A16138003100A5613370B4
:101550002FF012FF86234146656101226161380048
:101560003100A56133702FF007FF41466561A1612D
:101570003621A56101223170380031002FF0FCFEC8
:1015800040466561606148203100A56101223070EC
:1015900038002FF0F1FE41463A2365610122A16136
:1015A00038003100A56133702FF0E6FE4146552327
:1015B00065610122616138003100A56133702FF04F
:1015C000DBFEB123414665610122A1613800310093
:1015D000A56133702FF0D0FE4146656161614946D7
:1015E000A56101223170380031002FF0C5FE41465F
:1015F000182365610122616138003100A5613370F3
:101600002FF0BAFEB623414665610122A161380080
:101610003100A56133702FF0AFFE414608226561AD
:10162000380061613100A5613270073A2FF0A4FEE5
:10163000414601E0000004408223656101226161AE
:1016400038003100A56133702FF096FE4146272304
:1016500065610122616138003100A56133702FF0AE
:101660008BFEF223414665610122A1613800310001
:10167000A56133702FF080FE414665616161494686
:10168000A56101223170380031002FF075FE41460E
:10169000262365610122A16138003100A561337004
:1016A0002FF06AFE41460123656101226161380025
:1016B0003100A56133702FF05FFEE0234146656184
:1016C0000122A16138003100A56133702FF054FE72
:1016D0004146656161610F21A561012231703800C9
:1016E00031002FF049FE40466561606131203100D4
:1016F000A5610122307038002FF03EFE2B234146B9
:1017000065610122616138003100A56133702FF0FD
:1017100033FE4146656161610C21A5610122317092
:10172000380031002FF028FE4046656160610E20D0
:1017300031008246A5610122307038002FF01CFE76
:1017400040460822656131006061A5613800327051
:10175000073A2FF011FE40464E236561310060616B
:101760000122A561380033702FF006FE4046F123B8
:101770006561310060610122A561380033702FF08E
:10178000FBFD372340466561310060610122A561A0
:10179000380033702FF0F0FD40466561606107202E
:1017A0003100A5610122307038002FF0E5FD41467F
:1017B00010226561380061613100A56132700F3A15
:1017C0002FF0DAFD4246656162615A463100A5613B
:1017D00038003270023A2FF0CFFD424665616261F7
:1017E00052463100A561380032700D3A2FF0C4FD29
:1017F000092342466561310062613800A56101221A
:1018000033702FF0B9FD4246656162614A4631008E
:10181000A5613800327001322FF0AEFDE12342465F
:1018200065613100A2613800A561012233702FF09B
:10183000A3FD4246656162614A463100A5613800F8
:10184000327001322FF098FD424665616261524666
:101850003100A561380032700D3A2FF08DFD142350
:1018600042466561310062613800A5610122337032
:101870002FF082FD4246656162615A463100A561E2
:1018800038003270023A2FF077FD4246656162619E
:10189000112231009146A56138003270103A2FF0C4
:1018A0006BFD42460720656131006261A56101223E
:1018B000307038002FF060FD404665616061312076
:1018C0003100A5610122307038002FF055FD4246ED
:1018D000C1236561310062613800A5610122337066
:1018E0002FF04AFD43466561636148233100A561DD
:1018F0000122337038002FF03FFD43460822656116
:10190000310063613800A5613270073A2FF034FD71
:1019100043460F216561012263613800A561317082
:1019200031002FF029FD43460C22656131006361CF
:101930003800A56132700B3A2FF01EFD424631206F
:10194000656131006261A5610122307038002FF0BD
:1019500013FD424636236561310062613800A5619E
:10196000012233702FF008FD43460F2165610122EB
:1019700063613800A561317031002FF0FDFC4346F2
:101980006561A3614B4631000122A56138003370C7
:101990002FF0F2FC7820656103F0CCFE4346A36192
:1019A0002923A56101223100380033702FF0E4FCB7
:1019B000656103B0F0BCBB46B246A946A046F0BD87
:1019C000F0B5DE4657464E46454692468022E0B583
:1019D000D02585B080270193D2012A2390462D0679
:1019E000374EAA6102AAD41DBF0183468946AF6162
:1019F00021002370012230002FF0BEFC42466F61AF
:101A00006A615A46130A2100AF6101222370300037
:101A10002FF0B2FC5A4621002270300001222FF034
:101A2000ABFC5246130A23702100012230002FF034
:101A3000A3FC524621002270300001222FF09CFCB2
:101A400042462B236F612100AA613000AF61012261
:101A500023702FF091FC42466F616A614A46130A77
:101A60002100AF610122237030002FF085FC4A462F
:101A700021002270300001222FF07EFC019B21000A
:101A80001B0A2370012230002FF076FC019B2100FD
:101A90002370012230002FF06FFC43466F61AB6171
:101AA0002C23AF6101222100300023702FF064FC51
:101AB0006F6105B0F0BCBB46B246A946A046F0BD7A
:101AC00000000440F0B5DE4657464E464546040049
:101AD000E0B50D0085B0100000F002FC22002B00E4
:101AE00008320F3381469BB2200092B22900FFF7E3
:101AF00067FFD02380221B06D2015A618022920107
:101B00009A614B4620339BB20193304B9B4602AB0C
:101B1000DC1D2F4B9A465B464B445B784A4600934C
:101B20005B469B5C072501271E0010E0FF239846BB
:101B300001222100237027482FF01EFC434601227A
:101B40002100244823702FF017FC013D08D33300F7
:101B50002B411F42EAD153461B8898461B0AE7E7F0
:101B60006B461B785BB2002B1FDA0122210019485B
:101B700025702FF001FCFF2301222100154823705E
:101B80002FF0FAFB4B4602339BB29946019B9945D5
:101B9000C1D1D02380221B0692015A6105B0F0BC4E
:101BA000BB46B246A946A046F0BD53461D8821005B
:101BB0002B0A0122237007482FF0DEFB01222100AF
:101BC000257004482FF0D8FBDCE7C046D01903107D
:101BD000D0EB002000000440F0B5DE4657464E46EC
:101BE00045460400E0B50D0085B0100000F078FB1C
:101BF00022002B0008320F3381469BB2200092B2A4
:101C00002900FFF7DDFED02380221B06D2015A6196
:101C1000802292019A614B4620339BB20193374B4D
:101C20009B4602ABDC1D364B9A465B464B445B78C9
:101C30004A4600935B469B5C072501271E000FE088
:101C400000230122210023702E482FF095FB1F2333
:101C5000012221002B4823702FF08EFB013D16D36B
:101C600033002B411F42EBD153461B88012298467B
:101C70001B0A2100237023482FF07EFB43460122DC
:101C80002100204823702FF077FB013DE8D26B46FE
:101C90001B785BB2002B20DA002301222100237085
:101CA00018482FF069FB1F230122210015482370DB
:101CB0002FF062FB4B4602339BB29946019B99453C
:101CC000B3D1D02380221B0692015A6105B0F0BC2B
:101CD000BB46B246A946A046F0BD53461D8821002A
:101CE0002B0A0122237007482FF046FB0122210016
:101CF000257004482FF040FBDCE7C046D0190310E4
:101D0000D0EB002000000440F0B5DE4657464E46BA
:101D100045460400E0B50D0085B0100000F0E0FA83
:101D200022002B0008320F3381469BB2200092B272
:101D30002900FFF745FED02380221B06D2015A61FD
:101D4000802292019A614B4620339BB20193374B1C
:101D50009B4602ABDC1D364B9A465B464B445B7898
:101D60004A4600935B469B5C072501271E000FE057
:101D700007230122210023702E482FF0FDFAE023D3
:101D8000012221002B4823702FF0F6FA013D16D3D3
:101D900033002B411F42EBD153461B88012298464A
:101DA0001B0A2100237023482FF0E6FA4346012244
:101DB0002100204823702FF0DFFA013DE8D26B4666
:101DC0001B785BB2002B20DA07230122210023704D
:101DD00018482FF0D1FAE023012221001548237082
:101DE0002FF0CAFA4B4602339BB29946019B9945A4
:101DF000B3D1D02380221B0692015A6105B0F0BCFA
:101E0000BB46B246A946A046F0BD53461D882100F8
:101E10002B0A0122237007482FF0AEFA012221007D
:101E2000257004482FF0A8FADCE7C046D01903104B
:101E3000D0EB002000000440F0B5DE4657464E4689
:101E400045460400E0B50D0085B0100000F048FAEA
:101E500022002B0008320F3381469BB2200092B241
:101E60002900FFF7ADFDD02380221B06D2015A6165
:101E7000802292019A614B4620339BB20193364BEC
:101E80009B4602ABDC1D354B9A465B464B445B7868
:101E90004A4600935B469B5C072501271E000FE026
:101EA000FF230122210023702D482FF065FAE02343
:101EB000012221002A4823702FF05EFA013D16D33B
:101EC00033002B411F42EBD153461B880122984619
:101ED0001B0A2100237022482FF04EFA43460122AC
:101EE00021001F4823702FF047FA013DE8D26B46CE
:101EF0001B785BB2002B1FDA0122210018482570E5
:101F00002FF03AFAE02301222100154823702FF028
:101F100033FA4B4602339BB29946019B9945B4D1A3
:101F2000D02380221B0692015A6105B0F0BCBB464B
:101F3000B246A946A046F0BD53461D8821002B0A93
:101F40000122237006482FF017FA01222100257084
:101F500003482FF011FADCE7D0190310D0EB002072
:101F600000000440F0B5DE4657464E4645460400A4
:101F7000E0B50D0087B010009A4600F0B1F92200DC
:101F80002B0008320F3381469BB2200092B2290009
:101F9000FFF716FDD02380221B06D2015A61802252
:101FA00092019A6153461B0A01934B4620339BB220
:101FB000039304ABDC1D344B9B464A46334B072549
:101FC0004B445B7801270293304B9B5C98460FE0B3
:101FD000019B0122210023702D482FF0CDF953469B
:101FE000012221002A4823702FF0C6F9013D14D3A5
:101FF00043462B411F42EBD15B461E880122330A28
:102000002100234823702FF0B7F901222100204836
:1020100026702FF0B1F9013DEAD26B461B7A5BB214
:10202000002B20DA019B01222100237018482FF099
:10203000A3F9534601222100154823702FF09CF983
:102040004B4602339BB29946039B9945B5D1D023A9
:1020500080221B0692015A6107B0F0BCBB46B24613
:10206000A946A046F0BD5B461D8821002B0A01222F
:10207000237007482FF080F90122210025700448C1
:102080002FF07AF9DCE7C046D0EB0020D01903101E
:1020900000000440F8B53225CE4647464543ADB270
:1020A0002E000C0080B517000A36B6B2532231005C
:1020B00005209846FFF706FD6C2231000F20FFF740
:1020C00001FD762231001920FFF7FCFC2278310057
:1020D0002520FFF7F7FC627831002F20FFF7F2FC94
:1020E0000422380034492EF071FB434258414342E8
:1020F0005B055B0D9946F8231B029C4641241E3567
:10210000ADB2E14420000A343A784B463100A4B223
:10211000FFF728FF0137692CF4D1284F0A3420003B
:102120000A343A783100A4B2FFF786FE01379B2CBF
:10213000F5D14746053420000A343A783100A4B27C
:10214000FFF77AFE0137E62CF5D1089ED23C20003D
:102150000A3432782900A4B2FFF7D6FD0136502C9C
:10216000F5D1174E20000A3432782900A4B2FFF7C7
:10217000CBFD0136782CF5D1282229008720FFF7E6
:102180002BFD099E193420000A3432782900A4B2AC
:10219000FFF722FD0136CD2CF5D129007322CD2089
:1021A000FFF71AFD29002922D720FFF715FDC0BC33
:1021B000B946B046F8BDC04660180310B419031004
:1021C000BC190310F0B5C646D0248027802600B580
:1021D0003D4982B03D480EF07DFB01210A2002F00E
:1021E00075FD01210B2002F071FD01210C2002F090
:1021F0006DFD24060D20BF0102F098FDF6010E20B2
:102200006762676102F092FD05206662666102F016
:102210008DFD802520232D0263620F20636102F073
:1022200085FD05206562656103F084FA1420A561CF
:1022300003F080FA9620656103F07CFAFEF7ECFF6C
:10224000192003F077FA224B1A88002A03D0214B79
:102250001B88002B0FD105241F4D20000A342A783B
:102260000A21A4B2FFF72EFC0135552CF5D102B09E
:1022700080BCB846F0BD19491D0009885543884601
:10228000013B013A9BB20021002092B2FFF798FB7C
:1022900043466661A761DEB21F0A6B46DC1D012260
:1022A00021000A4827702FF067F8013D0122210024
:1022B000064826702FF060F8002DF0D1D023802240
:1022C0001B0692015A61C6E7404B4C0000000440D7
:1022D000C2050020C0050020C4190310D0EB002067
:1022E0000300203BDBB200205E2B00D85801704772
:1022F000F8B5051D2D026E1C07001021300001F0FD
:1023000025F8300001F04EF8041EFAD1FF21A81C78
:1023100001F01CF80123BB40DB430B491BB20A88C8
:1023200003351A400A8009490A8813400B80084B7C
:102330007A00D4520022074BDA55280001F032F817
:102340000028FAD10130F8BDDCEB0020DEEB0020E4
:102350006CE5002068E50020F0B54746CE4680B524
:1023600005000F001600984683B0042800D984E0C9
:1023700001295FD08B1E032B67D843465B0700D52E
:1023800073E04346002B06D0012F61D0022F66D0A8
:102390005BB2994601E0002189462800FFF7A8FFBB
:1023A0000F2349462C1D9943240239432000C9B20A
:1023B00000F0CCFF002E07D1314A32491688731C39
:1023C0009BB28B4254D01380310AF6B2201D00F02C
:1023D000BDFF3100601D661C00F0B8FF0121300018
:1023E00000F0B4FF300000F0DDFF0028FAD1012337
:1023F0001A00AA404746D2433B40AB40224E12B29D
:102400003188033411400B43204933800B881A4034
:102410000A801F4A6B00985200221E4B5A5520001A
:1024200000F0C0FF0028FAD068B203B0C0BCB946C3
:10243000B046F0BD0F20042201A901F019F80320D5
:10244000019B4042002B98D1EFE705204042ECE78A
:1024500021234246134208D0434659B29CE79B06CB
:10246000FAD5434659B2002996DB06204042DCE704
:10247000094BEF26FF211380A8E701204042D4E753
:10248000C4050020F0FF0000DCEB0020DEEB0020A4
:102490006CE5002068E5002000C0FFFF10B50428AF
:1024A00002D90120404210BDFFF722FFFBE7C046E2
:1024B000F0B5C6460E008046170000B5042862D865
:1024C000041D2402200000F06DFF0F230340012BA8
:1024D00056D1E51C280000F065FF132859D1327849
:1024E000737812029A18B37812029B18F2781B02C2
:1024F000013A9B1803334FD8002F47D02000042205
:1025000031000C3000F07CFF2000390A103000F060
:102510001DFF2000F9B21130661C00F017FF0421E6
:10252000300000F013FF300000F03CFF0028FAD12B
:1025300042461B4B1B881341DB0715D40826023487
:1025400009E0200000F02EFF06420FD1280000F025
:1025500029FF002811D0280000F024FF1728F0D10F
:10256000163880BCB846F0BD0020FAE720000821EC
:1025700000F0ECFE0D204042F3E704204042F0E77B
:1025800005204042EDE701204042EAE70B204042AF
:10259000E7E703204042E4E70C204042E1E7C04681
:1025A000DCEB0020F8B50600042839D8051D2D0203
:1025B000280000F0F7FE0F230340012B2DD16C1CE7
:1025C0000821200000F0C2FE200000F0EBFE0028F1
:1025D000FAD101221000B04013490B8883430B80CD
:1025E000124B1B8833411A420FD1EF1CAC1C08253B
:1025F00004E0200000F0D6FE054208D1380000F0CB
:10260000D1FE0028F5D10130F8BD0020FCE73000F4
:10261000FFF76EFE0D204042F6E705204042F3E74B
:1026200001204042F0E7C046DEEB0020DCEB00205A
:10263000F0B54E46DE4657464546E0B583B0060047
:1026400014000191042800D986E0031D1B02180024
:10265000994600F0A7FE0F230340012B00D081E034
:10266000002C00D17BE002334B441800984600F068
:1026700099FE172802D01C2800D076E03C4B012799
:102680009B461B8833411F423BD1B7401B2000F0C3
:1026900089FE032372009340184080231041DB0021
:1026A00083401D1C9BB2A34200D9251C314BADB207
:1026B0009A46300000F020FF0400404600F072FE11
:1026C000172801D01C2830D153461B881F4229D01F
:1026D000A5421FD84C46300001992A00013400F071
:1026E00053FF2021200000F031FE200000F05AFEB0
:1026F0000028FAD15B461B8828001F435B461F80D9
:1027000009E04B469D1C280000F04CFEC30612D485
:1027100003071BD4002003B0F0BCBB46B246A94659
:10272000A046F0BDA542C4D8D4E73000FFF7E0FDD5
:1027300007204042EFE71021280000F007FE5B462B
:10274000B7405A461B88BB4313809FE73000FFF712
:10275000CFFD0D204042DEE701204042DBE70E20A6
:102760004042D8E705204042D5E707204042D2E763
:10277000DEEB0020DCEB0020F0B54546DE46574698
:102780004E46E0B585B00500140000910192042882
:1027900000D983E0031D1B0218001F000F260293BF
:1027A00000F000FE0640012E00D07AE0002C00D19F
:1027B00071E01A2000F0F6FD6A00924603900320B3
:1027C00051460200384B8A40984601239146AE405C
:1027D0009B460337280000F0B3FE0400380000F0E9
:1027E000E1FD17281BD01C284FD1002C1DD128003B
:1027F00000F082FE04001B2000F0D4FD4B46184080
:10280000534618415B468340284A9B0213409C4232
:102810003BD043461B881E42DCD0002029E04346C3
:102820001B881E422CD0002CF7D04846039B019AEF
:102830001840534618418023DB008340181C9BB28C
:10284000934220D882B2A3B29A4200D9201C86B209
:1028500000992800320000F05FFF029C4021013403
:10286000200000F073FD200000F09CFD0028FAD14C
:10287000300005B0F0BCBB46B246A946A046F0BD4C
:10288000002CA7D0D1E7101CDCE72800FFF730FDB3
:1028900007204042EDE70E204042EAE70120404297
:1028A000E7E705204042E4E7DCEB002000FCFF0303
:1028B000F0B54546DE464E465746E0B583B01C00AF
:1028C0000CAB06008B4690461D88042800D9D8E042
:1028D000071D3B021800994600F064FD0F230340DA
:1028E000023B022B00D9CFE04346002B00D1CEE0C3
:1028F000207863780002C018A3780002C018E3783B
:102900000002C0180190002800D18BE0002D00D1FA
:102910007AE04B46DF1C380000F044FD42280CD022
:10292000EF231840222808D00720404203B0F0BC13
:10293000BB46B246A946A046F0BD48460422210047
:102940000C3000F05DFD4846290A103000F0FEFC16
:102950004846E9B2113000F0F9FC1B2000F022FDDE
:10296000032372009340184080231041DB00834012
:102970001D1C9BB2434550D80123B3409846454B9C
:10298000ADB29A46300000F0B7FD0400380000F008
:1029900009FD002843D0534642461B881A4230D0D6
:1029A000A5425AD82A005946300000F0EDFD042215
:1029B0000F2001A900F05CFD019B002B3BD0002300
:1029C00001934B465C1C2021200000F0BFFC20003E
:1029D00000F0E8FC0028FAD14F4610240826023700
:1029E00001E006423BD1380000F0DCFC0442F8D0A4
:1029F0001021380000F0AAFC019B002B26D12800F2
:102A000094E7A542BED8CDE7484600F0CBFC43078B
:102A100000D57EE70B20404288E74546ACE704201E
:102A2000404283E7484600F0BDFC430700D56DE710
:102A30000C2040427AE701A90422052000F018FD8D
:102A400004220520144900F0DBFCBAE7052004222B
:102A500001A900F0D5FC280068E7002066E70821FE
:102A6000380000F073FC019B002B02D10D20404286
:102A70005CE70520042201A900F0C2FC0D204042C1
:102A800054E70120404251E7052040424EE70E2026
:102A900040424BE7DCEB002024260310F0B54E4605
:102AA000DE4657464546E0B587B006001400019162
:102AB00002920393042800D90AE1051D2B02180095
:102AC000994600F06FFC0F230340023B0100009089
:102AD000032B00D9FFE0002C00D1FFE073009B46E0
:102AE0005A46804B9B5A002B58D10133B34098462D
:102AF0004B46DD1C7C4B9A46300000F021FD040063
:102B00000700280000F04EFC002800D1B3E0534637
:102B100042461B881A4200D175E0002C00D1ADE07E
:102B20000720009B1840032800D181E0042800D131
:102B3000A6E002283CD15A466A4B9B5A002B66D12C
:102B40004D4604AC210030000822013500F0E4FDC0
:102B50004021280000F0FAFB280000F023FC0028A8
:102B6000FAD1039A2378137063785370A378937023
:102B7000E378D3702279637912029B18109A13803C
:102B8000A279E379120259469B18564A9BB25352D6
:102B9000564A9046802241468A553CE0072008402C
:102BA000032834D0042832D0022830D00024002753
:102BB0003900300000F078FE5A464A4B4D469F528D
:102BC0004A4B013598464021280000F0BFFB280001
:102BD00000F0E8FB0028FAD15A46424B9B5ADF1B13
:102BE000404BBFB29F52002F03D04346985D012354
:102BF000184343469855200007B0F0BCBB46B24688
:102C0000A946A046F0BD002C00D175E788E7374AF9
:102C10004D4690460135029A171C9A4200D91F1C56
:102C2000BFB23A003000019900F076FD3C00CAE7DF
:102C30005A462C4B9B5A002BE9D14D4604AC21003F
:102C400030000622013500F067FD4021280000F029
:102C50007DFB280000F0A6FB0028FAD1039A237818
:102C6000137063785370A3789370E378D3702279EC
:102C70006379120287E704246442BCE70024BAE7C0
:102C80005A46184B9B5A002BC1D14D4604AC21002B
:102C900030000222013500F03FFD4021280000F005
:102CA00055FB280000F07EFB0028FAD159466278D7
:102CB0002378023A1B029B180A4A9BB253520C4AD1
:102CC000934200D864E73000FFF712FB094C92E70B
:102CD000012464428FE7052464428CE70E24644299
:102CE00089E7C0466CE50020DCEB002068E50020A9
:102CF000EA05000017FCFFFF70B50400150004286A
:102D000000D975E00C2929D83C4B89005B589F46B7
:102D1000200000F015FC2880012070BD0430C0B2F6
:102D20000002033000F03EFB28700120F5E704307C
:102D3000000200F037FBC307EAD4314B6400E35ACA
:102D400001202B80E9E70430000200F02BFB012872
:102D500051D02C4B01201B5D2B70DEE7022040423E
:102D6000DBE70430C0B2000200F01CFB0F239843E5
:102D700028700120D1E70430C0B20002163000F004
:102D800011FB28700120C8E70430C0B200021530E2
:102D900000F008FB28700120BFE70434E4B22402ED
:102DA0002000123000F0FEFA06002000133000F080
:102DB000F9FA360236182E800120AEE70430C0B290
:102DC00000020C300422290000F052FB0120A4E78D
:102DD0000434E4B224022000103000F0E3FA0600CC
:102DE00020001130E3E700F087FB2880012094E702
:102DF0000120404291E7052040428EE7F025031074
:102E00006CE5002068E500207047C0460078C0B23D
:102E10007047C04601707047002070477047C04639
:102E20007047C0467047C0467047C046002805D06E
:102E3000002903D0034B1961D86070470249034849
:102E4000F8E7C046C8050020212E0010092E00100A
:102E5000002805D0002903D0034B996158617047C1
:102E600002490348F8E7C046C8050020292E001093
:102E7000252E0010074B1A88920500D4FEE7002883
:102E800004D0002902D01962D86170470249034872
:102E9000F9E7C046C80500201D2E0010192E0010AD
:102EA00070B50C00052800D97DE0404B80001B5810
:102EB0009F461920097800F049FA61881720090A0D
:102EC00000F044FA1820A17800F040FA002070BD0C
:102ED000192000F067FA2070172000F063FA05004F
:102EE000182000F05FFA2D022D1865800020EEE713
:102EF0000622092000F084FA2100042201200E316C
:102F000000F07EFA2100042205200A3100F078FA50
:102F100004220F20A11D00F073FAA27C244B002094
:102F20001A70E27C5A70227D9A70627DDA70A27DFE
:102F3000204B1A70CBE70622092000F099FA2100F5
:102F4000042201200E3100F093FA21000422052012
:102F50000A3100F08DFA04220F20A11D00F088FA3A
:102F6000134B00201A78A2745A78E2749A7822756A
:102F7000DB7863750F4B1B78A375A8E70C783823B3
:102F800022009A430FD1002000F00CFA0443E1B272
:102F9000002000F0DBF9002099E7002000F002FAA1
:102FA0002070002093E70120404290E72C26031078
:102FB000BC470020EAEB002000B587B004A9062238
:102FC000092000F055FA01A90422012000F050FA6E
:102FD00002A90422052000F04BFA042203A90F20C5
:102FE00000F046FA8021002000F0B0F9002000F047
:102FF000D9F904A90622092000F002FA01A9042245
:10300000012000F0FDF902A90422052000F0F8F9E2
:1030100004220F2003A900F0F3F907B000BDC04659
:10302000F8B54746CE4680B506000F00FFF7C4FF4F
:10303000002E3DD00022B2563378082A00DD7EE013
:1030400072789B18DAB25BB2082B00DD77E0B378B8
:10305000D318DAB25BB2082B00DD70E0F378D21837
:1030600052B2082A6BDC0323B0460025994643463A
:103070001978012961D0002300295ED00A000133AC
:103080005BB21A41012AF9D1AB405CB21B2000F0BF
:1030900089F94B460100AB40994321431B20C9B23B
:1030A00000F054F901239C460235E044082DDED19E
:1030B000002F3DD00022BA563B78082A3FDC7A78B0
:1030C0009B18DAB25BB2082B39DCBB78D318DAB2C2
:1030D0005BB2082B33DCFB78D21852B2082A2EDC04
:1030E00000239846033300259946795D012929D0AC
:1030F000725D0023002A25D00A0001335BB21A4119
:10310000012AF9D1424693405CB21A2000F04AF9F4
:1031100042464B4601009340994321431A20C9B2CD
:1031200000F014F902239C460135E044042DDCD163
:103130000020C0BCB946B046F8BD0024A6E7012077
:103140004042F6E70024E0E710B50C000F2810D845
:10315000614B80001B589F46152000F023F90200A8
:103160000F20EF23104000021A408018208000201A
:1031700010BD01204042FBE7FFF71EFFF7E70029E3
:1031800000D19AE004312000FFF74AFFF0E7E02386
:1031900009881520194000F0D9F80020E8E710222E
:1031A0000B8809781B0591431B0F1620194300F06B
:1031B000CDF80020DCE71620CFE7484B00209A78B6
:1031C0000A70DA784A701A798A705A79CA709A79CC
:1031D0000A71DB794B7100238B71C9E7002000F085
:1031E00097FB3F49014389B2002000F079FB0020A2
:1031F00000F08EFB0304FAD4B9E7002000F088FB4E
:103200006378012B54D0E378012B5FD0354901401E
:10321000A378012B56D034480140002000F060FB19
:103220000020A5E7002000F073FB802201230100AD
:10323000520123701140104226D1020A1A40E27056
:1032400080226170010092011140104237D00020AD
:10325000A3708DE70C78002000F05AFB012C16D0EB
:1032600022490140002000F03BFB002000F050FB11
:103270000005C01740B27BE73C2000F093F8012323
:1032800003402370002073E70020637070E7802103
:103290000901014389B2002000F022FB002000F068
:1032A00037FB0123C00A58402040404240B25FE74C
:1032B00080214901014389B2AFE7002163E7002083
:1032C000A17055E780239B011943A6E708490140F7
:1032D0008020400001439BE744260310C8050020DE
:1032E0000080FFFFFFEE0000FFDFFFFFFFF70000A1
:1032F000FFEF000030B5144C83B0E3689847636972
:103300009847636A002B0BD0A36A002B08D069464C
:103310000F228A8035328A7101A80321984708E07C
:103320000F20236A98470020236A98474420236A85
:103330009847E36998470500A36998472369984728
:10334000280003B030BDC046C805002070B5144C3D
:1033500082B0E36805000E00984763699847A36A46
:10336000002B0ED0F02201A802702A0A042142701C
:103370008570C6709847A36998472369984702B03B
:1033800070BD236AF0209847280A236AC0B2984784
:10339000236AE8B298473000236A9847EBE7C046B3
:1033A000C805002030B5154C83B0E3680500984788
:1033B00063699847636A002B0BD0A36A002B08D07F
:1033C0000F2201A802702A0A0321427085709847D3
:1033D00009E00F20236A9847280A236AC0B2984759
:1033E000236AE8B29847E36998470500A3699847BC
:1033F00023699847280003B030BDC046C8050020A7
:10340000F0B51A4E83B0F368170004000D0098471A
:1034100073699847B26A002A12D0F02301A803709A
:10342000A3B21B0A4370032184709047390028001F
:10343000B36A9847B36998473369984703B0F0BDBA
:10344000F020336A9847A0B2336A000A9847E0B286
:10345000336A98470024002FECD001342878336A6F
:10346000A4B298470135A742F7D1E3E7C805002089
:10347000F0B5204E83B0F36804000D0017009847A4
:1034800073699847736A002B15D0B26A002A12D06C
:103490000F2301A80370A3B21B0A43700321847099
:1034A000904739002800736A9847B3699847336991
:1034B000984703B0F0BD0F20336A9847A0B2336A33
:1034C000000A9847E0B2336A98470024002FECD0F6
:1034D000F36998470134A4B228700135A742E4D0BB
:1034E000F36998470134A4B228700135A742EFD19F
:1034F000DBE7C046C8050020F8B5061D36023700D8
:103500000025203721363800FFF74CFF0402300039
:10351000FFF748FFA4B22418A4B2002C03D1002D59
:10352000F1D12800F8BD3800FFF73CFF050230005C
:10353000FFF738FFADB22D18ADB2AC42E3D1F0E7E2
:10354000F8B5061D36023700002526372736380025
:10355000FFF728FF04023000FFF724FFA4B224186D
:10356000A4B2002C03D1002DF1D12800F8BD380001
:10357000FFF718FF05023000FFF714FFADB22D185A
:10358000ADB2AC42E3D1F0E72423F0B5DE464E46BF
:10359000454657469C46E0B5051D2D02AC446346A2
:1035A00089B006006046029204930791FFF7FAFE85
:1035B0002535040028000595FFF7F4FE24022418A1
:1035C000A4B21B200694FFF7EDFE73009B46032375
:1035D0005A4693401840039380231041DB008340F8
:1035E000013B1C400194002E00D18FE003239A463A
:1035F000023B9946474B8027002400259846FF014F
:103600001B20FFF7CFFE53466D00AB40184028410A
:103610004B46834042469B020134134064B225006E
:10362000FF18A642ECDCBFB2019B029C9C461B200B
:1036300067446444FFF7B6FE5D460399BFB2084095
:10364000284101252B00834032489B0280460340DD
:103650009C423FDD1B20FFF7A5FE0399019B014023
:103660000800594608418540AD02ADB2EB1A9BB245
:1036700099461A00079B38009A461900FFF7C0FECA
:103680005346651B4B449946ABB20193002E3AD08A
:10369000032380279B46023B002400259A46FF0116
:1036A0001B20FFF77FFE5B466D00AB4018402841B2
:1036B0005346834042469B020134134064B22500C6
:1036C000FF18A642ECDC3804000C4946019AFFF7CB
:1036D00097FE04E03800029A0799FFF791FE029BDB
:1036E000069C9C466444A4B20498210AFFF72EFE6F
:1036F0000598E1B2FFF72AFE09B0F0BCBB46B2461E
:10370000A946A046F0BD8020C001DEE78027FF016A
:103710008AE7C04600FCFF032823F0B5DE464E468C
:10372000454657469C46E0B5051D2D02AC44634610
:1037300089B006006046029204930791FFF732FEBB
:103740002935040028000595FFF72CFE24022418D3
:10375000A4B21A200694FFF725FE73009B460323AC
:103760005A4693401840039380231041DB00834066
:10377000013B1C400194002E00D18FE003239A46A8
:10378000023B9946474BC027002400259846FF017D
:103790001A20FFF707FE53466D00AB401840284142
:1037A0004B46834042469B020134134064B22500DD
:1037B000FF18A642ECDCBFB2019B029C9C461A207B
:1037C00067446444FFF7EEFD5D460399BFB20840CD
:1037D000284101252B00834032489B02804603404C
:1037E0009C423FDD1A20FFF7DDFD0399019B01405C
:1037F0000800594608418540AD02ADB2EB1A9BB2B4
:1038000099461A00079B38009A461900FFF730FEC8
:103810005346651B4B449946ABB20193002E3AD0F8
:103820000323C0279B46023B002400259A46FF0144
:103830001A20FFF7B7FD5B466D00AB4018402841EA
:103840005346834042469B020134134064B2250034
:10385000FF18A642ECDC3804000C4946019AFFF739
:1038600007FE04E03800029A0799FFF701FE029B69
:10387000069C9C466444A4B20498210AFFF766FDA6
:103880000598E1B2FFF762FD09B0F0BCBB46B24655
:10389000A946A046F0BDC020C001DEE7C027FF0159
:1038A0008AE7C04600FCFF03F8B5061D3602370064
:1038B000283738000C00FFF775FD29360500300069
:1038C000FFF770FD2D0224182D19ADB23800290A1A
:1038D000FFF73CFD3000E9B2FFF738FDF8BDC04608
:1038E00010B50C0001003F20FFF730FD4020210AF9
:1038F000FFF72CFD4120E1B2FFF728FD0121442014
:10390000FFF724FDFFF7F6FC0028FBD110BDC046F1
:10391000010010B53F20FFF719FD02214420FFF7F9
:1039200015FDFFF7E7FC0028FBD14230FFF73AFD19
:1039300004004320FFF736FD2402204380B210BD6F
:10394000F0B589B00C00010068462CF009FF68460C
:103950002E4D261D29002DF0A7F9017830292CD1F4
:103960004378782B2CD000230AE00A00413A0B0060
:10397000052A01D8373BDBB20178DB19002914D0C6
:10398000202912D09F00FF180B00303BDBB27F00D4
:103990000130092BF0D90B00613B052BE5D85739D5
:1039A000CBB20178DB190029EAD1D9B221700134F8
:1039B0000020A642CED109B0F0BD0029D3D1F5E751
:1039C0008178871C002000290BD1EFE70A00413ADB
:1039D0000B00052A01D8373BDBB2397818180029CB
:1039E00012D0202910D00B00303BDBB20001013790
:1039F000092BF2D90B00613B052BE7D85739CBB225
:103A0000397818180029ECD1C1B2CFE764720310DD
:103A1000D02380221B0692029A617047D023802215
:103A20001B0692025A617047044B0CCBBFF35F8FA9
:103A30000021116083F310887047C0463858002079
:103A4000054B1968EFF3108072B60A68002AFCD0A3
:103A5000BFF35F8F586070473858002000B583B0BF
:103A60006B460122D91D087002482DF085FC03B079
:103A700000BDC04600C0034000B583B06A460023C5
:103A8000FF21D3710448013307322DF045FC6B460A
:103A9000D87903B000BDC04600C0034070B5D02443
:103AA000802524066D0365626420A56101F042FE55
:103AB0006561642001F03EFE70BDC04610B50D4941
:103AC0000D480CF007FF0121122001F0FFF8012141
:103AD000132001F0FBF80121102001F0F7F811206C
:103AE00001F024F9D02380221B0692025A625A6107
:103AF00010BDC046404B4C0000C0034010B5044808
:103B000001F0C8FF03490448FFF790F910BDC04613
:103B100038580020293A0010413A0010D023802262
:103B200010B51B06920284B05A6113491348FFF77F
:103B30008FF913481349FFF79DF902A90A00124BA8
:103B400011CB11C20120FFF7FFFA6B46DC1D431CAD
:103B500003D10DE02378002B08D121000F20FFF7BF
:103B6000F3FA431CF6D1094805F07AFA04B010BD07
:103B7000074805F075FAF9E71D3A0010113A0010F0
:103B8000793A00105D3A0010C82803109C260310F3
:103B90008426031010B58020FFF704FC512800D1C3
:103BA00010BD8020FFF7FEFB0100024805F000FB7E
:103BB000FEE7C046B826031084B010B5029003910A
:103BC000002002A904920593FFF76AF910BC08BC13
:103BD00004B0184784B010B586B00B93002308904A
:103BE0000991012008A9049305930A92FFF758F957
:103BF000082004A9FFF7A8FA08AB9B7D2248022BF6
:103C00003AD005F02DFA214804A905F0D1FA08AC04
:103C10006079A37862782178029020790190E07829
:103C200000901B4805F0C4FA607A237AE279A17902
:103C30000090184805F0BCFA607B237BE27AA17AF9
:103C40000090154805F0B4FA607C237CE27BA17BF0
:103C50000090124805F0ACFA607D237DE27CA17CE7
:103C600000900F4805F0A4FA0E4805F0F9F906B0E7
:103C700010BC08BC04B0184705F0F2F904A90A48C2
:103C800005F096FAC3E7C046EC2603107827031028
:103C9000A0270310D0270310EC27031008280310D7
:103CA000242803104028031054270310F0B5DE46E3
:103CB000574645464E46E0B588468DB01100060091
:103CC0000320039306F0C6FB634B644F644C3B60D8
:103CD000002303202370FEF7E1FB624B624D9B46FD
:103CE000624B9A46280005F0BBF92378042B27D0B5
:103CF000022B47D037D8002B56D05D4B3100994668
:103D000080234A465B001268002006F043FB4B46C6
:103D10001968544B82B2187835230093554BFEF73F
:103D2000C7FD3B689847514B186002230A20237057
:103D300001F000FD280005F093F92378042BD7D17A
:103D40000A2001F0F7FC022399464A4631004A480E
:103D500005F02EFA002528000DB0F0BCBB46B24697
:103D6000A946A046F0BD032B1AD15246002313608A
:103D70003C4B1878FEF792FB04230A20237001F0D5
:103D8000D9FCAFE75B461878FFF7DAFB002818D1BB
:103D90003B68984753461B68C01A039B834251D91E
:103DA0000A2001F0C7FC9DE72E4B00220221187863
:103DB0000023FEF7D1FA01230A20237001F0BAFC98
:103DC00090E78023021C5B00984239D85B4602A929
:103DD0008C4618780E23264D63440093296806AB61
:103DE00092B2FEF75BFE4246296807A806F05AFA2F
:103DF00040B20123002820D15B4299461D000323D5
:103E000023703B689847194B1B68C01A039B834279
:103E100018D90A2001F08EFC012D96D14146434667
:103E20004246C9785B7812780191414689781348F7
:103E30000091310005F0BCF98DE799460125DEE7D8
:103E40001A1CC3E703230A20237001F073FC02232A
:103E50005B42994679E7C046054A00104058002069
:103E6000F8050020E9EB0020F0280310B8E5002059
:103E700038CE0020F405002028290310FC28031068
:103E8000F0B5D6464F4646469046C0B58946060030
:103E900000F0B8FD43469BB29846124B07009A4685
:103EA0000BE00A2001F046FC3C0000F0ABFD0025D1
:103EB000001BA941002913DC10D03078FFF740FB2C
:103EC0000028EED0424649463078FEF755FC0028DF
:103ED000E7D0E0BCBA46B146A846F0BD5045ECD9A3
:103EE0000020F6E710270000F8B5DE4657464E469C
:103EF0004546E0B588460600924600F083FD134B28
:103F000007009946124B9B4608E000F07BFD3C0001
:103F10000025001BA941002915DC12D03078FFF7DD
:103F20000FFB0028F1D04B4652464146186800F07E
:103F300041FD0028E9D0F0BCBB46B246A946A046E8
:103F4000F8BD5845EAD90020F5E7C046DC56002008
:103F5000102700000A4B00689C46000270B56044C0
:103F60000C001500FFF71EFA03000020172B00D0ED
:103F700070BD044B2A002100186800F021FDF7E70E
:103F800003040000DC560020036870B5040018022A
:103F9000084B0E009C4660441500FFF703FA03002F
:103FA0000020172B00D070BD31002078AAB2FEF798
:103FB0003FFBF8E703040000F0B5DE4657464E46E7
:103FC00045461C00E0B59DB00D00160000211822EA
:103FD00007000AA804F0D6FE3022002110A804F041
:103FE000D1FE00210C2206A804F0CCFEA31C0D93E8
:103FF0008423E358300004930E9309962CF0B8FB09
:10400000230088330B9384235B00E3580A900493C6
:104010000C9380231B0107931193804B09A906A8D9
:1040200006951095139306F0E7FA002800D0E3E018
:1040300018230C2200937A497A4B06A806F03CFC20
:104040008046002869D10F9B0493DB070BD405231E
:104050000A2200937449754B06A806F02DFC804691
:10406000002800D0CFE00B9A0E9B02920C9A0A997E
:10407000049201920D9A6E480092099A05F098F800
:104080008C235B009A46089B069A04938A235B0064
:104090009B46E3580499009353466648E35805F05D
:1040A00087F80023019310AB00935A465346A25859
:1040B000E35806A9380006F06BFC8046159B5E4865
:1040C0001900049305F074F8199B04935B4B049951
:1040D0001800994605F06CF84346179E052B41D011
:1040E000002B00D085E0169B554804935B46049A4C
:1040F000E2505346E650199B1900049305F058F816
:10410000169A17994F4805F053F800201DB0F0BCDF
:10411000BB46B246A946A046F0BD06F051FE4A4E47
:104120000100300005F044F80F9B0493DB0700D436
:104130008DE7404606F044FE0100300005F038F8F7
:10414000159B3D481900049305F032F8199B049320
:104150003A4B04991800994605F02AF84346179EF1
:10416000052B46D1394804F07BFF199B48461900BE
:10417000049305F01DF8179B35481900049305F0CA
:1041800017F8169B2F480493179B049A1900059360
:1041900005F00EF82F4B99462F4B98462F4B9A4619
:1041A0000CE0169B50460493179B049A1900059344
:1041B00004F0FEFF199B04939E422CD28022002122
:1041C0001201280004F0DEFD80223B681201290064
:1041D000B868984704000100484604F0E9FF199BBD
:1041E00036191A0031004046049304F0E1FF002C18
:1041F000D7D10120404289E706F0E2FD01001248D4
:1042000004F0D6FF14E706F0DBFD0F4E010030008E
:1042100004F0CEFF8DE7002078E7C046054A001085
:104220009C29031080290310B4290310AC29031022
:10423000C0290310EC290310182A0310382A031090
:10424000F82A0310982A031048290310582A03104B
:104250007C2A0310B02A0310C82A0310F02A031086
:10426000892370B55B00CB5C04000D00002B09D1E5
:104270002000FEF797F9002304002B70012834D1A9
:10428000200070BD1B4E30684130FF3027F00EFF1C
:10429000A1239B009C463068604426F011FAF62367
:1042A0009B009C463068604426F00AFA124B306846
:1042B0009C46604418F074F830684130FF3029F0B3
:1042C000BDF982239B009C463068604429F06AFA5D
:1042D000306817F029FF002320003360FEF762F9F1
:1042E000002304002B700128CAD00100034804F009
:1042F0005FFFC5E7DC5600202C050000602B031093
:10430000F0B557464E464546DE46E0B5AA4C070096
:10431000A544AA4C04932378150099460391002BD9
:1043200000D03CE18E2200215200200004F02AFD42
:104330000123237004AB9C460D200322002160441E
:1043400004F020FD03212A789D4B985C014001294F
:1043500001D12032D2B2032106AE32706A78985C65
:104360000140012901D12032D2B203217270AA7812
:10437000985C0140012901D12032D2B20321B270F0
:10438000EA78985C0140012901D12032D2B2F27062
:104390002A79995C03230B40012B01D12032D2B240
:1043A0003271884B069A06AE9A4200D194E0854B52
:1043B000069A9A420FD0210038000125FFF750FFDE
:1043C0006D42280087239B009D44F0BCBB46B2464B
:1043D000A946A046F0BD882350225B00E252892303
:1043E0004A465B002800E2542CF0C2F981463000B6
:1043F0000AF074F833000022494628000AF074F8E5
:104400000028D8D173899B46002BD4D03389EB1870
:104410000593738A9846002BCDD0328A7388AD18E5
:1044200088229246A2440021083A5046029304F0A2
:10443000A9FCA21C914600218022484604F0A2FC5F
:1044400042462900504604F0A3FC842342465B0008
:10445000E25048465A46059904F09AFC84235A468D
:10446000E250029B002B03D01A0088235B00E2522B
:10447000554B564D9946A9442900484600F0C8FAC4
:10448000002835D00023524E524D637013333760ED
:10449000AE60FF33E35C002B3BD0012B50D02300F8
:1044A00028004D4A0399FFF787FD8A235B00E258F5
:1044B000909B05001A608C235B00E258919B2100C1
:1044C00038001A60FFF7CCFE002D00D179E72900F3
:1044D000424804F06DFE74E73379732B00D066E731
:1044E000BC229D33FF32E252103BFF3B994676E7F8
:1044F0003200290048463A4BFFF7D8FB0128C1D0CB
:10450000290001250D393800FF39FFF7A9FE6D425A
:1045100057E7002201213800FDF71EFF874241D1F5
:10452000882321005B000D31E25A3078FF31FDF71E
:10453000BFFF01283BD12B4B6B602B4B2B60AEE7B1
:104540000498002800D136E73900A21C00F09EF83C
:1045500041B2002916D1882321005B00E25A204B8A
:104560000D31FF3100930498002300F0B3F941B2FC
:10457000002910D11D4B049A1A601D4B6B601D4B16
:104580002B608CE71C4804F013FE21003800FFF775
:1045900067FE022515E7194804F00AFEF5E7012534
:1045A0006D420EE70100164804F002FEEDE701003F
:1045B000124804F0FDFDE8E7E4FDFFFFBC550020D4
:1045C000017D031068747470F6FEFFFFC85600206A
:1045D000D8560020E0560020C02B0310C42B031037
:1045E00010270000893F0010813E0010DC5600209B
:1045F000553F0010E93E0010982B03103C2B031090
:10460000182B0310F8B5DE46454657464E46E0B532
:104610008946050092469B4600F0F4F9EDB28046CB
:1046200007E000F0EFF946460027801BB9418C42B5
:1046300010DD2800FEF784FF041EF2D053464946E1
:1046400028009AB2FEF798F8F0BCBB46B246A946DD
:10465000A046F8BD8C4201D18345EAD80020F3E79B
:1046600070B5002A10D00C008D182BF083FFFF21AD
:1046700003F0E0FB21700134A542F6D12BF07AFF64
:104680002BF06EFF002070BD0120FCE7F0B5DE4688
:10469000040057464E464546E0B52600413685B0F3
:1046A000FF360F00904617F033FD300028F03AFB3C
:1046B00082239B00E518280029F02EF8A1239B00F7
:1046C0009946A144484625F0F3FFF6239B009A46FD
:1046D000A244504625F0ECFF684B9B46A344584645
:1046E00017F05AFEA823DB00E35C002B00D078E033
:1046F000634BE35C012B40D0002300220021280003
:1047000029F010F8002800D087E0A823DB009846A5
:10471000E15C5C4804F04CFD43462800E15C28F075
:104720001DFB00224946280028F08CFB22002800AF
:10473000554928F023FB524BE35C012B45D0002167
:10474000280028F0F5FA2800504928F025FB290018
:10475000300028F081FE041E66D14D4B39000093D5
:1047600030004C4B4C4A28F011FB200005B0F0BC47
:10477000BB46B246A946A046F0BDA723DB00E358DE
:10478000180098462BF0F4FF4146421C504625F095
:10479000EDF9039000284ED10021404804F008FDB7
:1047A0003F4BE358180098462BF0E2FF039B421C56
:1047B000009341460023584618F0BAFB002841D127
:1047C0000021384804F0F4FC96E75A465146280088
:1047D00028F018FB00283CD10021334804F0E8FC05
:1047E000ADE7324BE358180003932BF0C1FF039958
:1047F000421C484625F0BAF94142002837DB2C48D4
:1048000004F0D6FC4146300028F052FB002827D1A6
:104810000021284804F0CCFC6AE701240100264866
:1048200004F0C6FC6442A0E701244142234804F09E
:10483000BFFC644299E701244142214804F0B8FCDE
:10484000644292E7012441421E4804F0B1FC6442F4
:104850008BE7012401001C4804F0AAFC644284E7B1
:1048600001240100194804F0A3FC64427DE70124FF
:10487000174804F09DFC644277E7C0462C05000011
:1048800041050000402E0310614600101027000073
:10489000054600107927001031260010302D031036
:1048A0003C050000C82D03108C2E031034050000B9
:1048B000402C0310B42C03100C2E0310B82E031040
:1048C000E02C0310782D03105C2E0310842C0310B1
:1048D000F02B0310F0B5DE46454657464E46E0B590
:1048E00083B01C0005000192894600F08BF8B223CA
:1048F0005B00EB58A2B29A46DBB29B46804600238F
:1049000001215846FDF728FDFF23524604001340BD
:10491000984207D0200003B0F0BCBB46B246A9467F
:10492000A046F0BD6B46494658469A88FDF7C0FD43
:1049300004000128EED11A4804F092FB80239A4625
:10494000184B41359946FF35280028F099FC041E84
:104950001ED02300524693434B4506D061420124AA
:10496000114804F025FC6442D4E700F04BF84646B9
:104970000027801BB941002903DCE5D10C9B98423C
:10498000E2D921000124094804F012FC6442C1E785
:10499000280028F027FB0100054804F009FCB9E7CE
:1049A000E42E03100097FFFF0C2F0310402F03107D
:1049B000782F031010B54130FF3027F06FFA10BD8B
:1049C00010B54130FF3027F031FB10BD0A4A10B559
:1049D000136801331360094B1A6801321A601968B1
:1049E000074A914200D810BD00221A6005F01EFB54
:1049F00005F040FDF7E7C046D4500020F4560020F3
:104A0000E6030000014B002118687047D4500020D5
:104A1000F0B5DE464E4645465746E0B585B08B4676
:104A200001902BF0A5FEC3B298462A4B03AE1B881B
:104A300033800023B3704346073B082B42D8264BF4
:104A400000249A460423002100200025994611E005
:104A50008300C3185B00303B9B1898B2FF2831D805
:104A60004B1CDBB27254032B2CD801341900E3B277
:104A7000984520D9019B4F461A5D53469B5C1F42C7
:104A8000E6D12E2A1ED1FF281CD80135EDB2042D07
:104A900018D830002BF000FA5B465B19013B187008
:104AA000002103223000013404F06CF9E3B200214C
:104AB00000209845DED830002BF0EEF95B465855C3
:104AC000012000E0002005B0F0BCBB46B246A9467C
:104AD000A046F0BD9C2F0310017D0310F0B583B0FC
:104AE00005000E00140000F0AFF9002801D003B05B
:104AF000F0BD154F01223B0001210097053001F068
:104B00005DFA33002A0000940121104801F0DAFD1B
:104B100021002800714303F0B5F904000C4B00227A
:104B200000930221042001F049FA23000022012110
:104B30000094052001F042FA3B0002220021009778
:104B4000062001F03BFAD2E7006CDC020080024054
:104B5000001BB700F0B5DE4657464E464546E0B569
:104B6000070085B0042003930191029201F00EFC2E
:104B7000FA21890003F086F932238246FF339946F1
:104B800086005644B6014F4B4F4AF3180724934210
:104B90000ED901235B429C465346E144F61A4B462C
:104BA000002BF0D100205DE0002900D186E0062432
:104BB00021003000614303F065F9874242D0631E53
:104BC0009846012CE5D01D0065433000290003F014
:104BD00059F987424DD0A31E9B46022C4FD02D1B66
:104BE0002900300003F04EF987424AD0E31E9B466D
:104BF000032C61D02D1B2900300003F043F98742BC
:104C000043D0231F9B46042C45D02D1B2900300088
:104C100003F038F9874240D0631F9B46052C42D0F1
:104C20002D1B2900300003F02DF987423DD043466B
:104C3000052B3FD03000E91F03F024F98742B3D0A1
:104C40000624B5E70029BAD1A046424601207301E7
:104C50009B1B9B009E19019BF6001E60029B1C6023
:104C6000039B1A6005B0F0BCBB46B246A946A046FD
:104C7000F0BD0029E9D0A31E9B46022CAFD1012430
:104C800096E70029B2D1D846DFE70029FBD0231FE1
:104C90009B46042CB9D103248AE70029F3D0631F73
:104CA0009B46052CBCD1042482E70029EBD0434667
:104CB000052BBFD105247BE7022479E70123984621
:104CC000C3E7C04680E5F9FF804F1200094A830020
:104CD00094464022634410B51C68C0006240C02462
:104CE00014408022520113431C60034B9C466044D5
:104CF000416010BD04C00140004001400A4B8000EB
:104D00009C4604236044002901D00C230821002A7A
:104D100000D10B00026853400C221A4080235B0133
:104D2000184302607047C04604C001400123D022EE
:104D30008340120693629361094A8300944640229D
:104D400063441968C0004A40C021114080225201CA
:104D500013431960034B9C4605236044436070472E
:104D600004C001400040014070B5EFF3108C72B6F2
:104D70000D4D2B68002BFCD0BFF35F8F0724CB08B1
:104D8000C618C05C01230C40A3401C000440034231
:104D900007D103433370BFF35F8F2C608CF310880F
:104DA00070BD100001F0ECF82C0100D0F8B54746BA
:104DB000CE46884680B5EFF3108C72B6214D2C6834
:104DC000002CFCD0BFF35F8F9A422CD8D408072761
:104DD000055D061901241740BC402C421FD0072155
:104DE0000127894609E0D408055D06194C463900BB
:104DF0001440A1400C00294211D001329342F2D25A
:104E000001204042BFF35F8F00220E4B1A608CF3EB
:104E1000108800280FDBC0BCB946B046F8BD2C4353
:104E200010003470EEE7BFF35F8F00232B608CF32C
:104E30001088012040424346002BECD0089801F036
:104E40009FF8C0462C0100D0024B18688007C00FA5
:104E50007047C04600C006400021044B044ABFF31F
:104E60005F8F02C39342FAD17047C046000100D061
:104E7000800100D0044A1078431CDBB2172B00D904
:104E8000102313707047C046F905002000B5054B8C
:104E900083B00100009318221F230348FFF786FF09
:104EA00003B000BDA02F031064500020F8B504002B
:104EB00006200D0001F06AFA002844D02A4B2B4945
:104EC000E21853425A418023DB039C469205284B4B
:104ED00062441A60274B1A6010008B689843FBD11C
:104EE000214B8021E3185A425341234A5B00490079
:104EF0009952062001F04AFA2900C00002F0C2FFD0
:104F0000C30921D140270121260080256162A362C7
:104F100000232C36AD0135432B60062001F036FA14
:104F20003900800002F0AEFF6023E26A53406E2237
:104F30001A4080235B0133431A60104B2363102314
:104F40002B600D3BA364F8BD0D4A934203D90023A7
:104F50000C4F0D49D8E77F221040013040089F01D7
:104F600019003F180300CFE70080FCBF00C00040DD
:104F700000E0004000F00040C4EB0020010300000E
:104F8000FEFF0000C0FF3F00FFFF000083680B48EA
:104F900010B5844661446244090112019A185918F7
:104FA00054684B6801209C4201D802D00020C0B256
:104FB00010BD12680B689A42F9D8F7E7FFFFFF0FA0
:104FC00010B508000B690C009847002802D0206833
:104FD000616810BDE06000210020FAE70A4B196803
:104FE000EFF3108072B60A68002AFCD0BFF35F8F1F
:104FF0001B68BFF35F8F00221A6080F3108840BFE8
:10500000002000217047C04664E50020F8B55746EF
:105010004E464546DE46E0B599460CAB1C780DABD6
:105020001B78060090469A460768002C11D1BC7B7D
:10503000002C42D065003B682D19033D59194B786F
:10504000BB73002B00D1FB7300238B704B700B7074
:1050500004E065003B682D19033D5919B2682A4BDD
:1050600094464246E3181B0163441A604A465A605C
:105070000A9A9A600B9ADA6000238B704B700B705F
:105080007B7B9B46002B2BD022005946B8687B685F
:1050900098473A68002816D05B4658465B005B4448
:1050A0005519033BA870D118D35C002B00D06B704E
:1050B0005B460C707B73A34513D0F0BCBB46B24675
:1050C000A946A046F8BD5B465B005B44033BD31892
:1050D0009C705119525D002A00D05A705B460B70CB
:1050E0007C7342464B46307D00F022FC051E06D004
:1050F0005346002B03D12100306800F06FFE0E9B59
:10510000002BDAD01D70D8E7FFFFFF0FF0B5DE46A9
:105110004E46574645460023E0B58DB00A936B4B8B
:105120008200D3580B90994600239B464B46079329
:1051300000F09EFB079C06000F006268EFF31085ED
:1051400072B61368002BFCD022000794BFF35F8F68
:105150002468637B9946002B67D092685C4B90462D
:105160004B441B01984443461A685B6810001900C1
:10517000801BB94100295FDD0B9800F0D9FB0023AB
:105180000026984600279A46079C6368BFF35F8F06
:105190005A461A6085F310885346002B08D1002820
:1051A000C6D10DB0F0BCBB46B246A946A046F0BD84
:1051B0000A9B414618024B461843D0470890099174
:1051C0006268EFF3108572B61368002BFCD0079469
:1051D000BFF35F8F0899099A002A48DB114303D077
:1051E000079B1B69002B5DD1079B1B68D97B00299E
:1051F00007D04A00521819688C4649466244033A5F
:1052000051704A46DA734B46079A013BD168CA5C33
:105210000132CA545B46079A13615368BFF35F8F2C
:105220005A461A6085F3108882E7002300269846C4
:1052300000279A460020A7E7002901D100289BD12A
:105240000021200000F04CFD43461E685F689B680B
:10525000079A9A464346DB689846D3684B44013B1D
:105260001B780A931B020343136100208CE7236918
:10527000002BB9D033003C005B1A94411A00230084
:10528000A74219D89F421BD059460491012103918E
:105290004946029141460191514607980091FFF716
:1052A000B5FEB7E700F0E4FA089A099B06000F0084
:1052B00092197B419942E5D901225242D317E3E783
:1052C0009642E1D901225242D317DDE718D40020DB
:1052D000FFFFFF0FF8B557464E464546DE46E0B5A0
:1052E000404D81468A466A68EFF3108872B61368AB
:1052F000002BFCD0BFF35F8F2E68B47B002C39D01D
:10530000670033683F19033FDB195A78B273002AEC
:1053100000D1F273A968344A8C464946A21812019A
:105320006244116051465160304991600021D16062
:10533000997059701970737B9B46002B35D02200F1
:105340001900B068736898473268002820D05B461F
:1053500058465B005B44D719033BB870D118D35C47
:10536000002B00D07B705B460C7073735C451DD0C6
:10537000002626E06B68BFF35F8F1C6088F31088FF
:1053800001204042F0BCBB46B246A946A046F8BD4B
:105390005B465B005B44033BD3189C70D119D25D24
:1053A000002A00D05A705B460B7074734A4653460D
:1053B000287D00F0BDFA061EDAD02100286800F032
:1053C0000DFDEB681B19013B19786B68BFF35F8F0C
:1053D00000221A6088F310880020002ED2D1080223
:1053E0002043CFE7FC050020FFFFFF0FDD4F00103B
:1053F00010B5124C6368002B04D00A21104800F04D
:1054000025FB10BD23000F4A1021206800F086FB09
:10541000032000F021FA032000F0FAFA03200A49E1
:1054200000F040FAFFF726FD084B9C46032360443A
:105430002375074B80006060DC60DEE7FC05002020
:1054400064E500208D4F00100D5100104000003425
:1054500018D4002000487047FC050020F0B54E46E7
:105460004546DE465746E0B585B0109905008946A9
:105470001100194300D1ECE0D81704005440260075
:1054800004005C4001002700361A8F4149460E98FF
:105490000A600F9A4B604A618D60086100F0E8F97C
:1054A00002000B00B6185F4100960197B94200D97F
:1054B000DDE000D1D7E00023A8469B461F0043460D
:1054C0005A68EFF3108A72B61368002BFCD0BFF352
:1054D0005F8F43461E68B47B002C00D18BE06300D5
:1054E0001B19033B1A0094460393336863445A78AC
:1054F000B273002A00D1F27341468968604A8C4633
:1055000000980199A21812016244106051605D492F
:1055100091604946D1605A469A705A701A70757BEC
:10552000002D00D185E022002900B06873689847FB
:105530003268002800D171E003996B005B195118A3
:10554000033B8D70D018D35C002B00D089E0047031
:1055500075733E00AC4200D16CE043464246DB68C6
:1055600052681B19013B1B78BFF35F8F59461160CE
:105570008AF31088002E0CD101261B021C434B46D7
:105580003000DC6005B0F0BCBB46B246A946A04680
:10559000F0BD4846036998470700031E01D1002467
:1055A000EDE74A461468556822002A4365D0002D6D
:1055B0000BDA0098019902000B00121BAB419942D3
:1055C00013D822D00092019379E700F051F902003C
:1055D0000B00A4185D4100940195A94205D800D0A4
:1055E0006DE700998A4200D869E701235B42DC1726
:1055F0000093019463E75B68BFF35F8F1C608AF3DD
:105600001088012400266442B9E700999142D9D953
:1056100001235B42DC170093019450E76B005B1998
:10562000033B0398D3189C701118125C002A15D103
:105630000D7074734346187D009A019B00F078F951
:10564000061E00D189E743462100186800F0C6FB1A
:1056500083E7012600270122002317E75A700D7007
:10566000E7E74B7073E700998A4200D823E70123EC
:105670005B42DC17009301941DE71E0000247EE7C7
:10568000FFFFFF0FC14F0010F0B504000D0006260C
:105690007642F717C64636196F4100B58F4213D8C8
:1056A00010D000F0E5F832003B00121A8B41002BBD
:1056B00014DC002B37D02900200000F0E3F880BC78
:1056C000B846F0BD8642ECD90026002700F0D0F89D
:1056D00032003B00121A8B41002BEADD300039000A
:1056E000FFF7F8FD0028E6DB00239846BC460F4A8A
:1056F0000F4F7B6A9C4504D8B96A8E42DBD99C4522
:10570000D9D11168EFF3108072B60B68002BFCD072
:10571000BFF35F8F1368BFF35F8F4146196080F35B
:10572000108820BFE5E7002AC5D0D7E764E5002050
:105730000040054070B5060000F09AF8FA22040017
:105740000D00002330000021920003F0FBF9001946
:1057500069418D4205D802D0FFF796FF70BD8442A3
:10576000FAD901204042C117F6E7C046084A43680B
:10577000516A10B5046800208B4203D8926A013048
:10578000A24200D310BD5B1A5A1E9341D8B2F9E76A
:105790000040054002604360004870476D570010AC
:1057A000F0B5D6464F464646C0B5EFF305833F22D7
:1057B000134018001038EFF3108C72B6204D2A6891
:1057C000002AFCD0BFF35F8F0122110081401D4CE5
:1057D000884661631C4917000E788A463100C14033
:1057E0000F400A4209D1BFF35F8F2F608CF31088FE
:1057F000E0BCBA46B146A846F0BD14498200646ACE
:1058000051588C420FD3124BD25843469E435346B5
:105810001E70BFF35F8F00232B608CF31088002A6B
:10582000E6D09047E4E70B4A9B00904643441A6851
:105830001A60BFF35F8F00232B608CF31088D7E7CB
:10584000280100D000400540FAEB002084E500204C
:10585000604E0020D03F054010B50100024A0348C9
:10586000FFF782FA10BDC046BC2F0310ECEB0020FE
:10587000034B596A0A00986A596A8A42FAD17047FA
:1058800000400540064A536A9942FCD807D1044BB0
:1058900002E05A6A914202D19A6A8242F9D3704771
:1058A0000040054070B504000D00EFF3108672B69D
:1058B0001A4A1368002BFCD0BFF35F8F002D1BD05A
:1058C000200000F087FD164981420AD0200000F038
:1058D00089FD0121200000F05FFD0123A340114A52
:1058E0001360114BA400E550BFF35F8F00220B4BF8
:1058F0001A6086F3108870BD0B4BA200D5500122B0
:10590000A2400A4920000B7893430B70044900F031
:1059100093FD0021200000F03FFDE5E7280100D0C5
:10592000A157001038600540604E0020FAEB0020BF
:10593000F0B54F46D6464646C0B507002F4C616AC3
:105940000D00A66A616AA942FAD18B4208D805D037
:105950000120E0BCBA46B146A846F0BDB242F7D934
:10596000EFF3108A72B6264801680029FCD0BFF315
:105970005F8F0125BD402349204C88460978894620
:105980002943C9B28C46414660460870391D1E48FD
:10599000890065630A51B9000B50216A0020294231
:1059A00019D0616A0800A66A616A8142FAD18B4205
:1059B00019D801D1B24216D8CC451DD00F4B1F20AB
:1059C0001D625D6301230740BB40104A1E3813600F
:1059D00043464A461A70BFF35F8F0022084B1A6095
:1059E0008AF31088B5E70020BFF35F8F0022044BD5
:1059F0001A608AF31088ACE70120ECE7004005400C
:105A0000280100D0FAEB002084E5002080E200E0CD
:105A1000EFF3108C72B60A490B68002BFCD0BFF371
:105A20005F8F01238340074A0748136202789A4335
:105A30000270BFF35F8F00230B608CF310887047F8
:105A4000280100D000400540FAEB0020024B9C46A4
:105A500061448900016070474000003410B50400C3
:105A6000FFF708FA01002000FFF7F0FFFF23237182
:105A7000BFF35F8F10BDC04610B50400FFF7FAF901
:105A800001002000FFF7E2FFFF23A380BFF35F8F39
:105A900010BDC04610B504000120FFF7F7F9044B14
:105AA0009C46604480002060BFF35F8F10BDC046FD
:105AB0004000003470B5050014001600002915D010
:105AC0000C00002A12D080686B689847296800286B
:105AD0000ED073009B196200033B1219CB18033AD6
